:100000000C9434000C9446000C9446000C9446006A
:100010000C9446000C9446000C9446000C94460048
:100020000C9446000C9446000C9446000C94460038
:100030000C9446000C9446000C9446000C94460028
:100040000C9446000C9446000C9446000C94460018
:100050000C9446000C9446000C9446000C94460008
:100060000C946A000C94460011241FBECFEFD8E018
:10007000DEBFCDBF21E0A0E0B1E001C01D92A730FE
:10008000B207E1F70E944D000C9442010C9400006D
:100090003A9A3B9A429A439808950E9448000E94D7
:1000A000C90078942FEF89E698E121508040904074
:1000B000E1F700C00000C3E0D1E011E3188319822A
:1000C000CE010E942D018BE291E00197F1F700C073
:1000D0000000F4CF1F920F920FB60F9211242F93AE
:1000E0008F939F93AF93BF93EF93FF938091B9004A
:1000F000887F883039F48BE98093BB0085E8809352
:10010000BC003BC08091B900887F883129F0809184
:10011000B900887F803421F485EC8093BC002DC029
:10012000809102019091BB00E82FF0E0E050FF4F7A
:1001300090838F5F809302018230E1F484E98093A1
:10014000BC0010920201F894A0E0B1E011968C91ED
:100150001197E5E0F1E09C9196959695282F2295D0
:10016000220F220F207C922B908386958695818387
:10017000789403C085E88093BC00FF91EF91BF9114
:10018000AF919F918F912F910F900FBE0F901F9065
:1001900018958AB183608AB9269A53988BB18C7F5F
:1001A0008BB9269A08958F929F92AF92BF92CF9269
:1001B000DF92EF92FF920F931F93CF93DF9300D0C4
:1001C000CDB7DEB719821A82DE011196BC016E012D
:1001D00083E0C80ED11C6894AA24A3F8B12C24C0D3
:1001E000589A8401FB018081882314F4599A01C034
:1001F0005998F4018081880F808358987A019C91E6
:10020000990F9C934B9B03C09F5FFA0190832150F1
:10021000310931F71196F7018081F80180836F5F12
:100220007F4FAC15BD0529F02A2D3B2D4B01AD01AB
:10023000D7CF59980F900F90DF91CF911F910F91C9
:10024000FF90EF90DF90CF90BF90AF909F908F90F6
:1002500008952E9808952E9A0895CF93DF93EC0178
:100260000E94290182E08A95F1F700C0CE010E9428
:10027000D30082E08A95F1F700C00E942B01DF9144
:08028000CF910895F894FFCF1F
:00000001FF
