:100000000C9434000C9446000C9446000C9446006A
:100010000C9446000C9446000C9446000C94460048
:100020000C9446000C9446000C9446000C94460038
:100030000C9446000C9446000C9446000C94460028
:100040000C9446000C9446000C9446000C94460018
:100050000C9446000C9446000C9446000C94460008
:100060000C947F000C94460011241FBECFEFD8E003
:10007000DEBFCDBF21E0A0E0B1E001C01D92A53000
:10008000B207E1F70E945F000C94DE000C940000C0
:100090008FEF80936600E1E6F0E080E88083808364
:1000A0008AE08093B8007894089585EA8093BC0034
:1000B0000895399A269A3A9A419A2E9808950E945C
:1000C00059000E94480078942FEF83ED90E321506F
:1000D00080409040E1F700C000000E945500C4E05D
:1000E00087E592E00197F1F700C0000088B18C2706
:1000F00088B90E94550088B18C2788B9F1CF1F922A
:100100000F920FB60F9211242F938F939F93AF935B
:10011000BF93EF93FF938091B900887F883039F4C3
:100120008BE98093BB0085E88093BC003BC0809145
:10013000B900887F883129F08091B900887F8034A8
:1001400021F485EC8093BC002DC080910201909138
:10015000BB00E82FF0E0E050FF4F90838F5F80936B
:1001600002018230E1F484E98093BC001092020124
:10017000F894A0E0B1E011968C911197E3E0F1E0E2
:100180009C9196959695282F2295220F220F207CE0
:10019000922B9083869586958183789403C085E819
:1001A0008093BC00FF91EF91BF91AF919F918F9190
:1001B0002F910F900FBE0F901F901895F894FFCFBE
:00000001FF
