:100000000C9434000C9446000C9446000C9446006A
:100010000C9446000C9446000C9446000C94460048
:100020000C9446000C9446000C9446000C94460038
:100030000C9446000C9446000C9446000C94460028
:100040000C9446000C9446000C9446000C94460018
:100050000C9446000C9446000C9446000C94460008
:100060000C9482000C94460011241FBECFEFD8E000
:10007000DEBFCDBF21E0A0E0B1E001C01D92A730FE
:10008000B207E1F70E945E000C9458010C94000046
:100090008FEF80936600E1E6F0E080E88083808364
:1000A0008AE08093B8007894089585EA8093BC0034
:1000B00008953A9A3B9A429A439808950E945900AB
:1000C0000E9448000E94E10078942FEF83ED90E3B6
:1000D000215080409040E1F700C00000C3E0D1E033
:1000E00009E410E10E9455000883198362E070E082
:1000F000CE010E94050187E592E00197F1F700C06B
:100100000000F0CF1F920F920FB60F9211242F9381
:100110008F939F93AF93BF93EF93FF938091B90019
:10012000887F883039F48BE98093BB0085E8809321
:10013000BC003BC08091B900887F883129F0809154
:10014000B900887F803421F485EC8093BC002DC0F9
:10015000809102019091BB00E82FF0E0E050FF4F4A
:1001600090838F5F809302018230E1F484E9809371
:10017000BC0010920201F894A0E0B1E011968C91BD
:100180001197E5E0F1E09C9196959695282F2295A0
:10019000220F220F207C922B908386958695818357
:1001A000789403C085E88093BC00FF91EF91BF91E4
:1001B000AF919F918F912F910F900FBE0F901F9035
:1001C00018958AB183608AB9269A53988BB18C7F2F
:1001D0008BB9269A089528E030E090E0589A000004
:1001E000882314F4599A01C05998880F5898990F88
:1001F0004B999F5F00002150310981F75998892F51
:1002000008952E9808952E9A08956F927F928F9256
:100210009F92AF92BF92CF92DF92EF92FF920F9395
:100220001F93CF93DF93CDB7DEB73C015B018DB653
:100230009EB68DB79EB7861B970B0FB6F8949EBFE0
:100240000FBE8DBFEDB7FEB731966F010E94010161
:1002500000001A141B04ACF483017601A60CB71C31
:10026000F80180810E94EB00F80181938F01F70172
:1002700081937F01F3E0FA95F1F700000A151B0561
:1002800079F70E940301C6010FB6F8949EBE0FBE17
:100290008DBEDF91CF911F910F91FF90EF90DF9076
:1002A000CF90BF90AF909F908F907F906F90089568
:0402B000F894FFCFF0
:00000001FF
