S012000068656C6C6F576F726C642E73726563F6
S11300000C9434000C943E000C943E000C943E007E
S11300100C943E000C943E000C943E000C943E0064
S11300200C943E000C943E000C943E000C943E0054
S11300300C943E000C943E000C943E000C943E0044
S11300400C943E000C943E000C943E000C943E0034
S11300500C943E000C943E000C943E000C943E0024
S11300600C943E000C943E0011241FBECFEFD8E048
S1130070DEBFCDBF0E94C5000C946D010C9400003E
S1130080E8EBF0E08AEF80838FEF80936600A1E6CF
S1130090B0E080E88C938C938CE080830895ECEB43
S11300A0F0E0108294EA908390819923ECF7909188
S11300B0B900987F9830A1F48093BB0084E88093C2
S11300C0BC00ECEBF0E080818823ECF79091B90060
S11300D0987F983139F081E0903429F480E00895D4
S11300E081E0089580E0089584EC8093BC00ECEBFB
S11300F0F0E080818823ECF78091BB00089584E8C8
S11301008093BC00ECEBF0E080818823ECF78091D5
S1130110BB000895AF92BF92DF92EF92FF920F93CC
S11301201F93CF93DF935B017A0181600E944F009C
S1130130D82E811118C081E0E81AF10851F0E501C8
S113014085010E0D1F1D0E9474008993C017D107ED
S1130150D1F7E501CE0DDF1D0E947F00888384E97D
S11301608093BC0002C0DD24D3948D2DDF91CF9108
S11301701F910F91FF90EF90DF90BF90AF90089583
S11301803A9A3B9A429A43980895CF93DF9300D0CA
S1130190CDB7DEB70E94C0000E9440000E94F60066
S11301A019E409E142E050E0BE016F5F7F4F8AE944
S11301B00E948A0019830A8362E070E0CE010196EE
S11301C00E941A0187EE93E00197F1F700C0000046
S11301D062E070E0CE0101960E941A0119838FE15A
S11301E09EE40197F1F700C00000DCCF8AB1836080
S11301F08AB9269A53988BB18C7F8BB9269A089525
S113020028E030E090E0589A0000882314F4599ACA
S113021001C05998880F5898990F4B999F5F000017
S11302202150310981F75998892F08952E980895FE
S11302302E9A08956F927F928F929F92AF92BF925F
S1130240CF92DF92EF92FF920F931F93CF93DF939E
S1130250CDB7DEB73C015B018DB69EB68DB79EB7B8
S1130260861B970B0FB6F8949EBF0FBE8DBFEDB7DC
S1130270FEB731966F010E94160100001A141B0488
S1130280ACF483017601A60CB71CF80180810E94AE
S11302900001F80181938F01F70181937F01F3E05D
S11302A0FA95F1F700000A151B0579F70E94180169
S11302B0C6010FB6F8949EBE0FBE8DBEDF91CF91DE
S11302C01F910F91FF90EF90DF90CF90BF90AF9070
S11102D09F908F907F906F900895F894FFCFC9
S9030000FC
