S012000068656C6C6F576F726C642E73726563F6
S11300000C9434000C943E000C943E000C943E007E
S11300100C943E000C943E000C943E000C943E0064
S11300200C943E000C943E000C943E000C943E0054
S11300300C943E000C943E000C943E000C943E0044
S11300400C943E000C943E000C943E000C943E0034
S11300500C943E000C943E000C943E000C943E0024
S11300600C943E000C943E0011241FBECFEFD8E048
S1130070DEBFCDBF0E9454000C94A3000C9400007A
S1130080E8EBF0E08AEF80838FEF80936600A1E6CF
S1130090B0E080E88C938C938CE0808308953A9A46
S11300A03B9A429A43980895CF93DF9300D0CDB7FB
S11300B0DEB70E944F000E9440000E9495000E94FB
S11300C0740011E30E949F0019831A8262E0CE013A
S11300D001960E947D000E94A1008FE19EE4019799
S11300E0F1F700C00000EECF84B18C6284B924988B
S11300F085E58CBD1DBC2A9A08952A982CB52061EB
S11301002CBD662381F0FC019C01260F311DDF010B
S113011090819EBD0DB407FEFDCF9EB59C93319694
S1130120E217F307A1F72A9A08958AB183608AB97E
S1130130269A53988BB18C7F8BB9269A08952E9862
S10D014008952E9A0895F894FFCF55
S9030000FC
