S012000068656C6C6F576F726C642E73726563F6
S11300000C9434000C943E000C943E000C943E007E
S11300100C943E000C943E000C943E000C943E0064
S11300200C943E000C943E000C943E000C943E0054
S11300300C943E000C943E000C943E000C943E0044
S11300400C943E000C943E000C943E000C943E0034
S11300500C943E000C943E000C943E000C943E0024
S11300600C943E000C943E0011241FBECFEFD8E048
S1130070DEBFCDBF0E944F000C94F4000C9400002E
S1130080E8EBF0E08AEF80838FEF80936600A1E6CF
S1130090B0E080E88C938C938CE080830895CF93B8
S11300A0DF9300D0CDB7DEB70E9440000E947D00F0
S11300B03A9A3B9A429A43986894FF24F2F809E0EA
S11300C019E4F9820A8362E070E0CE0101960E948D
S11300D0A10087EE93E00197F1F700C0000062E011
S11300E070E0CE0101960E94A10019838FE19EE485
S11300F00197F1F700C00000E4CF8AB183608AB9A8
S1130100269A53988BB18C7F8BB9269A089528E050
S113011030E090E0589A0000882314F4599A01C002
S11301205998880F5898990F4B999F5F0000215058
S1130130310981F75998892F08952E9808952E9A98
S113014008956F927F928F929F92AF92BF92CF92B7
S1130150DF92EF92FF920F931F93CF93DF93CDB76C
S1130160DEB73C015B018DB69EB68DB79EB7861B8C
S1130170970B0FB6F8949EBF0FBE8DBFEDB7FEB7B9
S113018031966F010E949D0000001A141B04ACF408
S113019083017601A60CB71CF80180810E948700B8
S11301A0F80181938F01F70181937F01F3E0FA95C0
S11301B0F1F700000A151B0579F70E949F00C6019C
S11301C00FB6F8949EBE0FBE8DBEDF91CF911F91E6
S11301D00F91FF90EF90DF90CF90BF90AF909F90E2
S10F01E08F907F906F900895F894FFCFEB
S9030000FC
