S012000068656C6C6F576F726C642E73726563F6
S11300000C9434000C943E000C943E000C943E007E
S11300100C943E000C943E000C943E000C943E0064
S11300200C943E000C943E000C943E000C943E0054
S11300300C943E000C943E000C943E000C943E0044
S11300400C943E000C943E000C943E000C943E0034
S11300500C943E000C943E000C943E000C943E0024
S11300600C943E000C943E0011241FBECFEFD8E048
S1130070DEBFCDBF0E944F000C949A000C94000088
S1130080E8EBF0E08AEF80838FEF80936600A1E6CF
S1130090B0E080E88C938C938CE080830895CF93B8
S11300A0DF9300D0CDB7DEB70E9440000E947300FA
S11300B03A9A399A269A419A2E9809E414E00983C7
S11300C01A828FEF0E947E0062E0CE0101960E94A8
S11300D0840088B1812788B98FE19EE40197F1F704
S11300E000C00000ECCF84B18C6284B9249885E50B
S11300F08CBD8CB5857D8CBD1DBC08958EBD0DB4A5
S113010007FEFDCF8EB508952CB520612CBD662366
S113011081F0FC019C01260F311DDF0190819EBD01
S11301200DB407FEFDCF9EB59C933196E217F307FD
S10B0130A1F70895F894FFCF34
S9030000FC
