S01100006D696E69737461636B2E7372656350
S1130000E8C0000003C1000001C10000FFC00000FF
S11300104EC60000FBC00000F9C00000F7C000009D
S1130020F5C00000F3C00000F1C00000EFC0000004
S1130030EDC00000EBC00000E9C000002BC20000CE
S1130040E5C00000E3C00000E1C00000DFC0000024
S1130050DDC00000DBC00000D9C00000D7C0000034
S1130060D5C00000D3C000000804E902E902CB02B5
S1130070EB0225034F039203B803B803E303F2032F
S11300802C053B043B041D043D047704A104E40453
S1130090060506050605160552065F055F054105BA
S11300A061059B05C50508062A062A062A063A069E
S11300B02D3C0C1D3F2E1E0F0F1E2E3F1D0C3C2DE4
S11300C0392818092B3A0A1B1B0A3A2B0918283914
S11300D0091828391B0A3A2B2B3A0A1B3928180904
S11300E01D0C3C2D0F1E2E3F3F2E1E0F2D3C0C1DB4
S11300F03524140527360617170636270514243524
S11301002130001133221203031222331100302153
S11301101100302103122233332212032130001143
S113012005142435170636272736061735241405F3
S113013000000000000000000000000000000000BB
S113014000000000000000000000000000000000AB
S1130150000000000000000000000000000000009B
S1130160000000000000000000000000000000008B
S1130170000000000000000000000000000000007B
S1130180000000000000000000000000000000006B
S1130190000000000000000000000000000000005B
S11301A0000000000000000000000000000000004B
S11301B000001E0811C30001A612345600000000FE
S11301C0000000000000000000000000000000002B
S11301D0F40611241FBECFEFD8E0DEBFCDBF21E06F
S11301E0A0E0B1E001C01D92AB34B207E1F710E02A
S11301F0C9EED0E004C02197FE010E944009C83E28
S1130200D107C9F70E9404090C944F09F9CE803232
S113021019F0803431F00DC0E62FF0E0E95DFE4FB7
S113022006C0673038F4E62FF0E0E15EFE4F9081BF
S113023001C090E0892F089585B5811103C0809194
S11302401D0185BD0895607C862787FD8095E82F74
S1130250F0E0E055FF4F8491862B08950F931F9390
S1130260CF93FC018489813039F008F481C0823055
S113027009F447C083E082C02A9880E18EBD0DB4A2
S113028007FEFDCFCEB5CEBD8C2F8C70843011F01F
S113029082E074C00DB407FEFDCF8EB52A9A868B1A
S11302A08081823068F42A9882E88EBD0DB407FEFE
S11302B0FDCF8EB588E08EBD0DB407FEFDCF2A9A22
S11302C02A9883E88EBD0DB407FEFDCF8EB582E07B
S11302D08EBD0DB407FEFDCF2A9A8581811102C01F
S11302E060E401C060E08F0180E0ADDFF801808F41
S11302F085B5848F15BC85B3876085BB82E0848B0C
S11303002FC02A9880E18EBD0DB407FEFDCFCEB577
S1130310CEBD8C2F8C70843009F0BACF0DB407FE9B
S1130320FDCF8EB52A9A878B9689918F138E93E091
S1130330948B91E0958F9081958B807C933029F0FC
S1130340943019F4803819F415C0882399F0158E67
S1130350811102C082E003C0803871F484E0858B8F
S11303608C2F8095881F8827881F880F880F06C0C8
S113037084E004C080E002C082E0848BCF911F91AE
S11303800F910895FC012A9880E88EBD0DB407FEF4
S1130390FDCF88E08EBD0DB407FEFDCF82E38EBD98
S11303A0818580FD02C091E001C092E09C600DB4A3
S11303B007FEFDCF9EBD0DB407FEFDCF1EBC0DB4E0
S11303C007FEFDCF83E08EBD0DB407FEFDCF1EBC3E
S11303D081890DB407FEFDCF8EBD0DB407FEFDCFA0
S11303E02A9A10820895FC01808587FD1AC08150E5
S11303F080878F3FB1F4818580FD20C081E09FEF2D
S1130400908791E0909300018C602A9892E89EBDB9
S11304100DB407FEFDCF9EB58EBD0DB407FEFDCF16
S11304202A9A2685378583892115310549F021507B
S1130430310937872687232B31F002C082E0DFCFD2
S11304408E7F838B08958160838B848595859787C0
S1130450868787818F3F11F08F5F87838289882306
S113046021F08150828B882391F08189908998179B
S113047081F0808B2A9896E89EBD0DB407FEFDCFCF
S11304809EB58EBD0DB407FEFDCF2A9A0895108245
S1130490ECCF08951F920F920FB60F9211242F9351
S11304A03F934F935F936F937F938F939F93AF93F8
S11304B0BF93EF93FF9381E091E095DFFF91EF917C
S11304C0BF91AF919F918F917F916F915F914F9168
S11304D03F912F910F900FBE0F901F901895CF93BF
S11304E0FC01178215BC16BC85B3876085BB848567
S11304F09585009749F52081243021F42091280125
S1130500211102C0209129012430E0F0203418F494
S1130510822F90E017C0322F307C303449F484E0CD
S1130520289F900111243327C901805C9F4F0AC082
S1130530303841F42F7380E1289F90011124C901C0
S1130540805C9E4F95878487862F90E001969787DD
S1130550868784E080936E0082E084BD94E697BD34
S113056098BD85BD611105C0CF01CFB7F8943BDFBD
S1130570CFBFCF9108951F93CF93DF93DC0154969F
S1130580EC914E2F50E04C30510518F5EC01FA0176
S1130590EC5CFF4F75C68E8987FD10C02A9883E8EE
S11305A08EBD0DB407FEFDCF8EB582E08EBD0DB4B9
S11305B007FEFDCF2A9A85E08C8B28C16F89898D2F
S11305C042DE9F89891711F082E023C18D8D81114C
S11305D0A9C083E01EC12A9880E18EBD0DB407FE38
S11305E0FDCF1EB51EBD812F8C70843069F7EB8D55
S11305F0F0E00DB407FEFDCF9EB52A9AEC0FFD1F67
S1130600938F898D8927898F9B8D9F5F9B8F9E896F
S113061097FD11C02A9883E88EBD0DB407FEFDCF67
S11306208EB582E08EBD0DB407FEFDCF2A9A85E01B
S11306308C8B1B8EE9C06F8906DE9F898913C4CF1A
S11306408D8D882331F21B8E6DC02A9880E18EBD7A
S11306500DB407FEFDCF1EB51EBD812F8C708430F6
S113066009F0B2CF0DB407FEFDCF9EB52A9A9A8F3A
S1130670898D8927898F9B8D9F5F9B8F911137C0AF
S11306802A9883E88EBD0DB407FEFDCF8EB582E0B7
S11306908EBD0DB407FEFDCF2A9A86E090C02A983D
S11306A080E18EBD0DB407FEFDCF1EB51EBD812FAA
S11306B08C70843009F088CF0DB407FEFDCF9EB551
S11306C02A9A898D8927898F9B8D9F5F9B8F911192
S11306D00EC02A9883E88EBD0DB407FEFDCF8EB5FB
S11306E082E08EBD0DB407FEFDCF2A9A8DC06F89BE
S11306F0AADD9F89891368CF8D8D882309F469CF7A
S11307008E899A8D282F2076203231F08B898D7F27
S11307108B8B1B8E198E2CC08F718A879B878B893C
S11307208260F6CF198E8E89682F6F7180766FDDA7
S11307302A9890E99EBD0DB407FEFDCF1EB58EBD6F
S11307400DB407FEFDCF2A9A998D8927898F9D8143
S1130750911102C060E401C060E075DD888F8B8D6B
S11307608F5F8B8F811102C088E029C01B8E29C046
S11307708D81882331F08B8DFE01E80FF11D91816D
S113078001C090E02A9880E98EBD0DB407FEFDCF2C
S11307901EB59EBD0DB407FEFDCF2A9A898D89270B
S11307A0898F9D81911102C060E401C060E04BDD3E
S11307B0888F8B8D8F5F8B8F843019F48AE08C8BBC
S11307C023C089E0FCCF888D2A9890E99EBD0DB4A2
S11307D007FEFDCF1EB58EBD0DB407FEFDCF2A9AD0
S11307E08BE0EDCF2A9883E88EBD0DB407FEFDCFD4
S11307F01EB582E08EBD0DB407FEFDCF2A9A81E0BE
S11308008C8B60E0CE016BDE17FF02C080E001C07C
S113081084E0DF91CF911F9108951F93CF93DF93CD
S1130820DC015496EC914E2F50E04C30510518F5F4
S1130830EC01FA01E05CFF4F23C58E8987FD10C0EF
S11308402A9883E88EBD0DB407FEFDCF8EB582E0F5
S11308508EBD0DB407FEFDCF2A9A85E08C8BFAC0BD
S11308606F89898DF0DC9F89891711F082E0F5C0CA
S11308708D8D8111A9C083E0F0C02A9880E18EBDDE
S11308800DB407FEFDCF1EB51EBD812F8C708430C4
S113089069F7EB8DF0E00DB407FEFDCF9EB52A9A03
S11308A0EC0FFD1F938F898D8927898F9B8D9F5F07
S11308B09B8F9E8997FD11C02A9883E88EBD0DB445
S11308C007FEFDCF8EB582E08EBD0DB407FEFDCFD1
S11308D02A9A85E08C8B1B8EBBC06F89B4DC9F8900
S11308E08913C4CF8D8D882331F21B8E6DC02A9855
S11308F080E18EBD0DB407FEFDCF1EB51EBD812F58
S11309008C70843009F0B2CF0DB407FEFDCF9EB5D4
S11309102A9A9A8F898D8927898F9B8D9F5F9B8FB8
S1130920911137C02A9883E88EBD0DB407FEFDCF20
S11309308EB582E08EBD0DB407FEFDCF2A9A86E007
S113094073C02A9880E18EBD0DB407FEFDCF1EB59D
S11309501EBD812F8C70843009F088CF0DB407FE42
S1130960FDCF9EB52A9A898D8927898F9B8D9F5F9C
S11309709B8F91110EC02A9883E88EBD0DB407FE9B
S1130980FDCF8EB582E08EBD0DB407FEFDCF2A9A51
S11309905FC06F8958DC9F89891368CF8D8D882348
S11309A009F469CF8E899A8D282F2076203231F070
S11309B08B898D7F8B8B1B8E198E28C08F718A87B4
S11309C09B878B898260F6CF198E8E89682F6F7111
S11309D080761DDC2A9890E99EBD0DB407FEFDCFFC
S11309E01EB58EBD0DB407FEFDCF2A9A998D8927B9
S11309F0898F60E428DC888F8B8D8F5F8B8F8111CA
S1130A0002C088E011C01B8E89E00EC0888D2A9830
S1130A1090E99EBD0DB407FEFDCF1EB58EBD0DB48D
S1130A2007FEFDCF2A9A8BE08C8B12C02A9883E8AC
S1130A308EBD0DB407FEFDCF1EB582E08EBD0DB494
S1130A4007FEFDCF2A9A81E08C8B60E0CE0147DD62
S1130A5017FF02C080E001C084E0DF91CF911F91B5
S1130A6008951F93CF93DF93DC015496EC914E2F9E
S1130A7050E04C30510518F5EC01FA01E45BFF4FEE
S1130A80FFC38E8987FD10C02A9883E88EBD0DB4FC
S1130A9007FEFDCF8EB582E08EBD0DB407FEFDCFFF
S1130AA02A9A85E08C8BFCC06F89898DCCDB9F8969
S1130AB0891711F082E0F7C08D8D8111A9C083E000
S1130AC0F2C02A9880E18EBD0DB407FEFDCF1EB59D
S1130AD01EBD812F8C70843069F7EB8DF0E00DB46E
S1130AE007FEFDCF9EB52A9AEC0FFD1F938F898DCB
S1130AF08927898F9B8D9F5F9B8F9E8997FD11C04E
S1130B002A9883E88EBD0DB407FEFDCF8EB582E032
S1130B108EBD0DB407FEFDCF2A9A85E08C8B1B8E0B
S1130B20BDC06F8990DB9F898913C4CF8D8D8823C5
S1130B3031F21B8E6DC02A9880E18EBD0DB407FE84
S1130B40FDCF1EB51EBD812F8C70843009F0B2CF4D
S1130B500DB407FEFDCF9EB52A9A9A8F898D8927F9
S1130B60898F9B8D9F5F9B8F911137C02A9883E853
S1130B708EBD0DB407FEFDCF8EB582E08EBD0DB4E3
S1130B8007FEFDCF2A9A86E073C02A9880E18EBDC5
S1130B900DB407FEFDCF1EB51EBD812F8C708430B1
S1130BA009F088CF0DB407FEFDCF9EB52A9A898D32
S1130BB08927898F9B8D9F5F9B8F91110EC02A98E7
S1130BC083E88EBD0DB407FEFDCF8EB582E08EBDE9
S1130BD00DB407FEFDCF2A9A61C06F8934DB9F896B
S1130BE0891368CF8D8D882309F469CF8E899A8DF6
S1130BF0282F2076203231F08B898D7F8B8B1B8EB2
S1130C00198E28C08F718A879B878B898260F6CF63
S1130C10198E8E89682F6F718076F9DA2A9890E997
S1130C209EBD0DB407FEFDCF1EB58EBD0DB407FEEF
S1130C30FDCF2A9A998D8927898F60E404DB888FF8
S1130C408B8D8F5F8B8F811102C088E011C01B8E4A
S1130C5089E00EC0888D2A9890E99EBD0DB407FEE8
S1130C60FDCF1EB58EBD0DB407FEFDCF2A9A8BE0D5
S1130C708C8B14C02A9883E88EBD0DB407FEFDCF7B
S1130C801EB582E08EBD0DB407FEFDCF2A9A81E029
S1130C908C8B82E0888360E0CE0121DC17FF02C0E8
S1130CA080E001C084E0DF91CF911F9108951F92ED
S1130CB00F920FB60F9211242F933F934F935F938C
S1130CC06F937F938F939F93AF93BF93EF93FF9310
S1130CD0309B79C080911501833020F481E091E04C
S1130CE0BDDA01C080E090911501933088F08091C5
S1130CF01601833031F0843041F481E091E03BDC33
S1130D0007C081E091E089DD03C081E091E0A9DEC4
S1130D10833019F18430C9F1823009F04AC02A992C
S1130D2004C00DB407FEFDCF2A9A2A9883E88EBD2D
S1130D300DB407FEFDCF8EB592E09EBD0DB407FE47
S1130D40FDCF2A9A81FF31C08091010181112DC00C
S1130D506FE781E091E0C3DB28C02A9883E88EBD69
S1130D600DB407FEFDCF8EB582E08EBD0DB407FE37
S1130D70FDCF2A9A81E0809315018091010183308F
S1130D80B8F082E08093010113C02A9885E88EBDF3
S1130D900DB407FEFDCF8EB580E88EBD0DB407FE01
S1130DA0FDCF2A9A81E091E0EDDA81E0809315018C
S1130DB043DA809115018850833010F4309BFECFC4
S1130DC082E08BBB85CFFF91EF91BF91AF919F9153
S1130DD08F917F916F915F914F913F912F910F90E0
S1130DE00FBE0F901F901895E1E0F1E010829FEF85
S1130DF09783AAE0B1E08C9181608C931586148668
S1130E0017861686908B118A128AA4E1B1E08C9120
S1130E108C7F8B7F8C939287148A158A148E089505
S1130E208EE48093B30082E08093B00087E08093E7
S1130E30B10027980895FB018081813109F47AC0BB
S1130E409181823129F0803159F49093380108C09E
S1130E50913031F487E480937C0087EC80937A00AE
S1130E602181E081EC3008F060C0E93050F08091DD
S1130E700101823009F05EC0F0E0E95DFE4F20839D
S1130E800895E13069F580910101843021F4809165
S1130E902801811102C0809129018430D0F080346E
S1130EA010F490E018C0982F907C903441F434E012
S1130EB0839FC00111249927805C9F4F0CC09038F8
S1130EC041F48F7330E1839FC0011124805C9E4FF5
S1130ED002C080E090E090930E0180930D01CCCF8E
S1130EE0E130F8F42839A1F028F42A35B1F0273993
S1130EF031F00895293949F02A3919F0089582E02A
S1130F0001C083E08093010108951092070103C09A
S1130F1081E08093070184E0F5CF83E0809313019F
S1130F200895E43009F4A3CF089581EF8E0F813141
S1130F3008F4A2CF0895B99B04C082E087BB81E086
S1130F40089580E00895CF93DF93EC01F4DF8823C4
S1130F5061F188818F5F888390E023E09595879580
S1130F602A95E1F7982F9F7083FF02C090959770A0
S1130F7080910801853018F019829A8302C0998300
S1130F801A821F9902C08FE08A83898120E1829F9F
S1130F90C0011124909112019F70892B809312013A
S1130FA0807F9A81892B8093120182E180930301CF
S1130FB084E38093040186E58093050180913901DF
S1130FC0813071F038F0823009F1833031F51092BC
S1130FD002011FC083B18095881F8827881F17C00E
S1130FE090917A0096FD1BC0209178003091790091
S1130FF0369527953695279520930201809306010F
S113100080917A00806480937A0009C088818093FB
S1131010020181E08093060102C010920601DF9173
S1131020CF910895CF93DF93EC016115710511F011
S113103002DF27C080910101811123C093B19095F3
S1131040991F9927991F80910A0190FB80F9809339
S11310500A01911102C091E001C092E08FEF8093E8
S1131060090181E0809300019C602A9882E88EBD8A
S11310700DB407FEFDCF8EB59EBD0DB407FEFDCFAA
S11310802A9ACE01DF91CF915ECFCF93DF93EC010B
S113109085B1846285B92B9884B18C6284B9249813
S11310A08CE58CBD81E08DBD40E250E060EB71E0E9
S11310B087E291E0EBD018821D821E828091680045
S11310C082608093680080916C00816080936C00E2
S11310D0EEDD1F8215BC16BC85B3876085BB2C85ED
S11310E03D852115310549F58881843021F48091AD
S11310F02801811102C0809129018430E0F08034FC
S113110018F4282F30E017C0982F907C903449F4BD
S113111024E0829FC001112499279C01205C3F4F49
S11311200AC0903841F48F7320E1829FC0011124DA
S11311309C01205C3E4F3D872C8781E090E09F8797
S11311408E8784E080936E0082E084BD94E697BD30
S113115098BD85BD9FB7F894888587FD1AC08150D6
S113116088878F3FB1F4898580FD20C081E02FEF0F
S1131170288721E0209300018C602A9822E82EBD64
S11311800DB407FEFDCF2EB58EBD0DB407FEFDCF09
S11311902A9A2E853F858B892115310549F02150E6
S11311A031093F872E87232B49F002C082E0DFCF2D
S11311B08E7F8B8B9FBFDF91CF91089581608B8B46
S11311C02C853D853F872E878F818F3F11F08F5F60
S11311D08F838A89882321F081508A8B882391F018
S11311E089892889281731F3888B2A9826E82EBD07
S11311F00DB407FEFDCF2EB58EBD0DB407FEFDCF99
S11312002A9AD8CF1882ECCF2FEF81EE94E02150A8
S113121080409040E1F700C000008AB180638AB941
S11312205C98FEDD81E091E030DF789483B7817FC4
S113123083BF83B7816083BF889583B78E7F83BF65
S11312408091140180FFF5CF8E7F8093140181FF7C
S113125006C08D7F809314016BE071E002C060E0F2
S113126070E080916C008E7F80936C0087E491E045
S1131270D9DE80916C00816080936C0018DDD9CF39
S1131280EE0FFF1F0590F491E02D0994FB01DC01A2
S113129002C005900D9241505040D8F70895F8943B
S10512A0FFCF7A
S9030000FC
