:10000000E8C0000000C10000FEC00000FCC000000D
:1000100053C60000F8C00000F6C00000F4C00000A5
:10002000F2C00000F0C00000EEC00000ECC0000014
:10003000EAC00000E8C00000E6C00000A0C1000067
:10004000E2C00000E0C00000DEC00000DCC0000034
:10005000DAC00000D8C00000D6C00000D4C0000044
:10006000D2C00000D0C00000D403EA02EA0291022C
:10007000A102F0021A035F0386038603AE03BE03E8
:10008000FC0407040704E903090445046F04B404ED
:10009000D604D604D604E60426062F052F0511053E
:1000A00031056D059705DC05FE05FE05FE050E060E
:1000B0002D3C0C1D3F2E1E0F0F1E2E3F1D0C3C2DE8
:1000C000392818092B3A0A1B1B0A3A2B0918283918
:1000D000091828391B0A3A2B2B3A0A1B3928180908
:1000E0001D0C3C2D0F1E2E3F3F2E1E0F2D3C0C1DB8
:1000F0003524140527360617170636270514243528
:100100002130001133221203031222331100302157
:100110001100302103122233332212032130001147
:1001200005142435170636272736061735241405F7
:1001300000000000000000000000000000000000BF
:1001400000000000000000000000000000000000AF
:10015000000000000000000000000000000000009F
:10016000000000000000000000000000000000008F
:10017000000000000000000000000000000000007F
:10018000000000000000000000000000000000006F
:10019000000000000000000000000000000000005F
:1001A000000000000000000000000000000000004F
:1001B0000000140811C20801A61234560000000005
:1001C000000000000000000000000000000000002F
:1001D000F90611241FBECFEFD8E0DEBFCDBF21E06E
:1001E000A0E0B1E001C01D92AC34B207E1F710E02D
:1001F000C9EED0E003C02197FE01E8D7C83ED10781
:10020000D1F7A8D7F2C7FCCE803219F0803431F094
:100210000DC0E62FF0E0E85DFE4F06C0673038F411
:10022000E62FF0E0E05EFE4F908101C090E0892F64
:10023000089585B5811103C080911E0185BD089583
:10024000607C862787FD8095E82FF0E0E055FF4F22
:100250008491862B08950F931F93CF93FC0184897B
:10026000813039F008F481C0823009F447C083E05E
:1002700082C02A9880E18EBD0DB407FEFDCFCEB5B9
:10028000CEBD8C2F8C70843011F082E074C00DB420
:1002900007FEFDCF8EB52A9A868B8081823068F466
:1002A0002A9882E88EBD0DB407FEFDCF8EB588E09A
:1002B0008EBD0DB407FEFDCF2A9A2A9883E88EBD25
:1002C0000DB407FEFDCF8EB582E08EBD0DB407FEE6
:1002D000FDCF2A9A8481811102C060E401C060E0F0
:1002E0008F0180E0ADDFF801808F85B5858F15BC6B
:1002F00085B3876085BB82E0848B2FC02A9880E11C
:100300008EBD0DB407FEFDCFCEB5CEBD8C2F8C704B
:10031000843009F0BACF0DB407FEFDCF8EB52A9A0E
:10032000878B9689918F148E93E0948B91E0968FB2
:100330009081958B807C933029F0943019F480382B
:1003400019F415C0882399F0168E811102C082E03D
:1003500003C0803871F484E0858B8C2F8095881FD2
:100360008827881F880F880F06C084E004C080E0BB
:1003700002C082E0848BCF911F910F9108951F924C
:100380000F920FB60F9211242F933F938F939F9349
:100390008091090187FD1DC08150809309018F3F25
:1003A000C1F480910A0180FD26C081E09FEF909307
:1003B000090191E0909300018C602A9892E89EBD1B
:1003C0000DB407FEFDCF9EB58EBD0DB407FEFDCF6B
:1003D0002A9A20910F01309110018091140121156A
:1003E000310559F0215031093093100120930F014C
:1003F000232B39F002C082E0D9CF8E7F8093140185
:1004000033C081608093140180910D0190910E01A1
:100410009093100180930F01809108018F3F19F094
:100420008F5F8093080180911301882329F0815008
:10043000809313018823A9F08091120190911101FA
:10044000981791F0809311012A9896E89EBD0DB4FB
:1004500007FEFDCF9EB58EBD0DB407FEFDCF2A9AD7
:1004600003C010920101E8CF9F918F913F912F918E
:100470000F900FBE0F901F901895FC01178215BCAE
:1004800016BC85B3876085BB84859585009749F543
:100490002081243021F420912901211102C02091D2
:1004A0002A012430E0F0203418F4822F90E017C0A5
:1004B000322F307C303449F484E0289F900111249D
:1004C0003327C901805C9F4F0AC0303841F42F7335
:1004D00080E1289F90011124C901805C9E4F95877F
:1004E000848770E06F5F7F4F7787668784E08093B3
:1004F0006E0082E084BD94E697BD98BD85BD0895E9
:100500001F93CF93DF93DC015496EC914E2F50E074
:100510004C30510508F05EC0EC01FA01EC5CFF4F75
:1005200055C62A9883E88EBD0DB407FEFDCF8EB563
:1005300082E08EBD0DB407FEFDCF2A9A84E08C8B3D
:1005400031C12A9880E18EBD0DB407FEFDCF1EB5E6
:100550001EBD812F8C70843011F082E026C1EC8D9D
:10056000F0E00DB407FEFDCF9EB52A9AEC0FFD1FFB
:10057000938F898D8927898F9C8D9F5F9C8F911187
:100580000DC02A9883E88EBD0DB407FEFDCF8EB551
:1005900082E08EBD0DB407FEFDCF72C09E8997FD2F
:1005A00011C02A9883E88EBD0DB407FEFDCF8EB52D
:1005B00082E08EBD0DB407FEFDCF2A9A85E08C8BBC
:1005C0001C8EEEC06F893CDE9F898913C6CF8E8D4D
:1005D000811102C083E0E9C08B8D8D831C8E6FC0BA
:1005E0002A9880E18EBD0DB407FEFDCF1EB51EBD5D
:1005F000812F8C70843009F0B0CF0DB407FEFDCF91
:100600009EB52A9A9A8F898D8927898F9C8D9F5FA5
:100610009C8F911137C02A9883E88EBD0DB407FED8
:10062000FDCF8EB582E08EBD0DB407FEFDCF2A9AB8
:1006300086E0A2C02A9880E18EBD0DB407FEFDCFF2
:100640001EB51EBD812F8C70843009F086CF0DB48D
:1006500007FEFDCF9EB52A9A898D8927898F9C8DAB
:100660009F5F9C8F91110EC02A9883E88EBD0DB4B8
:1006700007FEFDCF8EB582E08EBD0DB407FEFDCF27
:100680002A9A8EC06F89DCDD9F89891366CF8E8D93
:10069000882309F49FCF8E899A8D282F20762032C7
:1006A00041F08B898D7F8B8B8B8D8D831C8E198E6A
:1006B0002DC08F718A879B878B898260F4CF198EBA
:1006C0008E89682F6F7180769FDD2A9890E99EBD94
:1006D0000DB407FEFDCF1EB58EBD0DB407FEFDCFD8
:1006E0002A9A998D8927898F9C81911102C060E493
:1006F00001C060E0A5DD888F8C8D8F5F8C8F8111AC
:1007000002C088E039C01C8E89E036C08C81882305
:1007100031F08C8DFE01E80FF11D918101C090E058
:100720002A9880E98EBD0DB407FEFDCF1EB59EBD93
:100730000DB407FEFDCF2A9A898D8927898F9C8168
:10074000911102C060E401C060E07ADD888F8C8D79
:100750008F5F8C8F833021F58AE00EC0888D2A98B8
:1007600090E99EBD0DB407FEFDCF1EB58EBD0DB444
:1007700007FEFDCF2A9A8BE08C8B12C02A9883E863
:100780008EBD0DB407FEFDCF1EB582E08EBD0DB44B
:1007900007FEFDCF2A9A81E08C8B60E0CE016DDEF2
:1007A00017FF02C080E001C084E0DF91CF911F916C
:1007B00008951F93CF93DF93DC015496EC914E2F55
:1007C00050E04C30510518F5EC01FA01E05CFF4FA8
:1007D000FDC48E8987FD10C02A9883E88EBD0DB4B4
:1007E00007FEFDCF8EB582E08EBD0DB407FEFDCFB6
:1007F0002A9A85E08C8BFEC06F89898D21DD9F89C7
:10080000891711F082E0F9C08E8D8111ADC083E0AF
:10081000F4C02A9880E18EBD0DB407FEFDCF1EB551
:100820001EBD812F8C70843069F7EC8DF0E00DB423
:1008300007FEFDCF9EB52A9AEC0FFD1F938F898D81
:100840008927898F9C8D9F5F9C8F9E8997FD11C002
:100850002A9883E88EBD0DB407FEFDCF8EB582E0E9
:100860008EBD0DB407FEFDCF2A9A85E08C8B1C8EC1
:10087000BFC06F89E5DC9F898913C4CF8E8D882323
:1008800031F28B8D8D831C8E6FC02A9880E18EBDD6
:100890000DB407FEFDCF1EB51EBD812F8C708430B8
:1008A00009F0B0CF0DB407FEFDCF9EB52A9A9A8FFE
:1008B000898D8927898F9C8D9F5F9C8F911137C06F
:1008C0002A9883E88EBD0DB407FEFDCF8EB582E079
:1008D0008EBD0DB407FEFDCF2A9A86E075C02A981A
:1008E00080E18EBD0DB407FEFDCF1EB51EBD812F6C
:1008F0008C70843009F086CF0DB407FEFDCF9EB515
:100900002A9A898D8927898F9C8D9F5F9C8F911151
:100910000EC02A9883E88EBD0DB407FEFDCF8EB5BC
:1009200082E08EBD0DB407FEFDCF2A9A61C06F89AB
:1009300087DC9F89891366CF8E8D882309F467CF62
:100940008E899A8D282F2076203241F08B898D7FD9
:100950008B8B8B8D8D831C8E198E28C08F718A870F
:100960009B878B898260F4CF198E8E89682F6F7177
:1009700080764ADC2A9890E99EBD0DB407FEFDCF33
:100980001EB58EBD0DB407FEFDCF2A9A998D89271D
:10099000898F60E455DC888F8C8D8F5F8C8F8111FF
:1009A00002C088E011C01C8E89E00EC0888D2A9894
:1009B00090E99EBD0DB407FEFDCF1EB58EBD0DB4F2
:1009C00007FEFDCF2A9A8BE08C8B12C02A9883E811
:1009D0008EBD0DB407FEFDCF1EB582E08EBD0DB4F9
:1009E00007FEFDCF2A9A81E08C8B60E0CE0145DDC9
:1009F00017FF02C080E001C084E0DF91CF911F911A
:100A000008951F93CF93DF93DC015496EC914E2F02
:100A100050E04C30510518F5EC01FA01E45BFF4F52
:100A2000D5C38E8987FD10C02A9883E88EBD0DB48A
:100A300007FEFDCF8EB582E08EBD0DB407FEFDCF63
:100A40002A9A85E08C8B00C16F89898DF9DB9F899B
:100A5000891711F082E0FBC08E8D8111ADC083E05B
:100A6000F6C02A9880E18EBD0DB407FEFDCF1EB5FD
:100A70001EBD812F8C70843069F7EC8DF0E00DB4D1
:100A800007FEFDCF9EB52A9AEC0FFD1F938F898D2F
:100A90008927898F9C8D9F5F9C8F9E8997FD11C0B0
:100AA0002A9883E88EBD0DB407FEFDCF8EB582E097
:100AB0008EBD0DB407FEFDCF2A9A85E08C8B1C8E6F
:100AC000C1C06F89BDDB9F898913C4CF8E8D8823F8
:100AD00031F28B8D8D831C8E6FC02A9880E18EBD84
:100AE0000DB407FEFDCF1EB51EBD812F8C70843066
:100AF00009F0B0CF0DB407FEFDCF9EB52A9A9A8FAC
:100B0000898D8927898F9C8D9F5F9C8F911137C01C
:100B10002A9883E88EBD0DB407FEFDCF8EB582E026
:100B20008EBD0DB407FEFDCF2A9A86E075C02A98C7
:100B300080E18EBD0DB407FEFDCF1EB51EBD812F19
:100B40008C70843009F086CF0DB407FEFDCF9EB5C2
:100B50002A9A898D8927898F9C8D9F5F9C8F9111FF
:100B60000EC02A9883E88EBD0DB407FEFDCF8EB56A
:100B700082E08EBD0DB407FEFDCF2A9A63C06F8957
:100B80005FDB9F89891366CF8E8D882309F467CF39
:100B90008E899A8D282F2076203241F08B898D7F87
:100BA0008B8B8B8D8D831C8E198E28C08F718A87BD
:100BB0009B878B898260F4CF198E8E89682F6F7125
:100BC000807622DB2A9890E99EBD0DB407FEFDCF0A
:100BD0001EB58EBD0DB407FEFDCF2A9A998D8927CB
:100BE000898F60E42DDB888F8C8D8F5F8C8F8111D6
:100BF00002C088E011C01C8E89E00EC0888D2A9842
:100C000090E99EBD0DB407FEFDCF1EB58EBD0DB49F
:100C100007FEFDCF2A9A8BE08C8B14C02A9883E8BC
:100C20008EBD0DB407FEFDCF1EB582E08EBD0DB4A6
:100C300007FEFDCF2A9A81E08C8B82E0888360E0FA
:100C4000CE011BDC17FF02C080E001C084E0DF9111
:100C5000CF911F910895FC012A9880E88EBD0DB4B4
:100C600007FEFDCF8CE08EBD0DB407FEFDCF82E305
:100C70008EBD818580FD02C091E001C092E09C6044
:100C80000DB407FEFDCF9EBD0DB407FEFDCF1EBC0B
:100C90000DB407FEFDCF83E08EBD0DB407FEFDCF82
:100CA0001EBC81890DB407FEFDCF8EBD0DB407FEBD
:100CB000FDCF2A9A108208951F920F920FB60F92BD
:100CC00011242F933F934F935F936F937F938F9351
:100CD0009F93AF93BF93EF93FF93309B79C0809125
:100CE0001501833020F481E091E0B5DA01C080E0A5
:100CF00090911501933088F080911601833031F086
:100D0000843041F481E091E0FBDB07C081E091E0B9
:100D100050DD03C081E091E074DE833019F184304E
:100D2000C9F1823009F04AC02A9904C00DB407FE07
:100D3000FDCF2A9A2A9883E88EBD0DB407FEFDCF19
:100D40008EB592E09EBD0DB407FEFDCF2A9A81FFBD
:100D500031C08091010181112DC06FE781E091E0E8
:100D60008CDB28C02A9883E88EBD0DB407FEFDCF2A
:100D70008EB582E08EBD0DB407FEFDCF2A9A81E0CC
:100D800080931501809101018330B8F082E0809357
:100D9000010113C02A9885E88EBD0DB407FEFDCF72
:100DA0008EB580E88EBD0DB407FEFDCF2A9A81E096
:100DB00091E051DF81E0809315013BDA80911501CC
:100DC0008850833010F4309BFECF82E08BBB85CF00
:100DD000FF91EF91BF91AF919F918F917F916F9113
:100DE0005F914F913F912F910F900FBE0F901F90E9
:100DF0001895E1E0F1E010829FEF9783AAE0B1E05F
:100E00008C9181608C931586148617861686908B3C
:100E1000118A128AA4E1B1E08C918C7F8B7F8C9334
:100E20009287148A158A158E08958EE48093B300F4
:100E300082E08093B00087E08093B1002798089506
:100E4000FB018081813109F47AC09181823129F0DE
:100E5000803159F49093390108C0913031F487E41E
:100E600080937C0087EC80937A002181E081EC30D4
:100E700008F060C0E93050F080910101823009F043
:100E80005EC0F0E0E85DFE4F20830895E13069F533
:100E900080910101843021F480912901811102C0E7
:100EA00080912A018430D0F0803410F490E018C092
:100EB000982F907C903441F434E0839FC00111243A
:100EC0009927805C9F4F0CC0903841F48F7330E1BC
:100ED000839FC0011124805C9E4F02C080E090E09F
:100EE00090930E0180930D01CCCFE130F8F42839B6
:100EF000A1F028F42A35B1F0273931F008952939C5
:100F000049F02A3919F0089582E001C083E0809306
:100F1000010108951092070103C081E08093070149
:100F200084E0F5CF83E0809313010895E43009F461
:100F3000A3CF089581EF8E0F813108F4A2CF0895D9
:100F4000B99B04C082E087BB81E0089580E00895EA
:100F5000CF93DF93EC01F4DF882361F188818F5F09
:100F6000888390E023E0959587952A95E1F7982F5F
:100F70009F7083FF02C09095977080910801853023
:100F800018F019829A8302C099831A821F9902C0AD
:100F90008FE08A83898120E1829FC0011124909192
:100FA00012019F70892B80931201807F9A81892B77
:100FB0008093120182E18093030184E38093040112
:100FC00080913A01813059F020F0823021F58881FA
:100FD0001CC083B18095881F8827881F16C09091F8
:100FE0007A0096FD1AC020917800309179003695EC
:100FF00027953695279520930201809305018091CE
:101000007A00806480937A0008C08093020181E0B6
:101010008093050102C010920501DF91CF910895E0
:10102000CF93DF93EC016115710511F009DF27C043
:1010300080910101811123C093B19095991F992747
:10104000991F80910A0190FB80F980930A01911108
:1010500002C091E001C092E08FEF8093090181E02E
:10106000809300019C602A9882E88EBD0DB407FE33
:10107000FDCF8EB59EBD0DB407FEFDCF2A9ACE01E1
:10108000DF91CF9165CFCF93DF93EC018CE58CBDE1
:1010900081E08DBD85B1846285B92B9884B18C6265
:1010A00084B9249840E250E060EB71E088E291E07E
:1010B00093D018821C821E82809168008260809387
:1010C000680080916C00816080936C00F5DD1F8268
:1010D00015BC16BC85B3876085BB8C859D85009744
:1010E00049F52881243021F420912901211102C0E1
:1010F00020912A012430E0F0203418F4822F90E06F
:1011000017C0322F307C303449F484E0289F90019E
:1011100011243327C901805C9F4F0AC0303841F445
:101120002F7380E1289F90011124C901805C9E4F9C
:101130009D878C8781E090E09F878E8784E08093F5
:101140006E0082E084BD94E697BD98BD85BDDF91B9
:10115000CF9108952FEF81EE94E021508040904090
:10116000E1F700C000008AB180638AB95C985DDE57
:1011700081E091E088DF789483B7817F83BF83B774
:10118000816083BF889583B78E7F83BF8091140170
:1011900080FFF5CF8E7F8093140181FF06C08D7F85
:1011A000809314016BE071E002C060E070E0809118
:1011B0006C008E7F80936C0088E491E031DF809139
:1011C0006C00816080936C0077DDD9CFEE0FFF1F3C
:1011D0000590F491E02D0994FB01DC0102C005901B
:0E11E0000D9241505040D8F70895F894FFCF7B
:00000001FF
