S01100006D696E69737461636B2E7372656350
S1130000E8C0000000C10000FEC00000FCC0000009
S113001053C60000F8C00000F6C00000F4C00000A1
S1130020F2C00000F0C00000EEC00000ECC0000010
S1130030EAC00000E8C00000E6C00000A0C1000063
S1130040E2C00000E0C00000DEC00000DCC0000030
S1130050DAC00000D8C00000D6C00000D4C0000040
S1130060D2C00000D0C00000D403EA02EA02910228
S1130070A102F0021A035F0386038603AE03BE03E4
S1130080FC0407040704E903090445046F04B404E9
S1130090D604D604D604E60426062F052F0511053A
S11300A031056D059705DC05FE05FE05FE050E060A
S11300B02D3C0C1D3F2E1E0F0F1E2E3F1D0C3C2DE4
S11300C0392818092B3A0A1B1B0A3A2B0918283914
S11300D0091828391B0A3A2B2B3A0A1B3928180904
S11300E01D0C3C2D0F1E2E3F3F2E1E0F2D3C0C1DB4
S11300F03524140527360617170636270514243524
S11301002130001133221203031222331100302153
S11301101100302103122233332212032130001143
S113012005142435170636272736061735241405F3
S113013000000000000000000000000000000000BB
S113014000000000000000000000000000000000AB
S1130150000000000000000000000000000000009B
S1130160000000000000000000000000000000008B
S1130170000000000000000000000000000000007B
S1130180000000000000000000000000000000006B
S1130190000000000000000000000000000000005B
S11301A0000000000000000000000000000000004B
S11301B00000140811C30801A61234560000000000
S11301C0000000000000000000000000000000002B
S11301D0F90611241FBECFEFD8E0DEBFCDBF21E06A
S11301E0A0E0B1E001C01D92AD34B207E1F710E028
S11301F0C9EED0E003C02197FE01EBD7C83ED1077A
S1130200D1F7ABD7F5C7FCCE803219F0803431F08A
S11302100DC0E62FF0E0E75DFE4F06C0673038F40E
S1130220E62FF0E0EF5DFE4F908101C090E0892F52
S1130230089585B5811103C080911F0185BD08957E
S1130240607C862787FD8095E82FF0E0E055FF4F1E
S11302508491862B08950F931F93CF93FC01858976
S1130260813039F008F481C0823009F447C083E05A
S113027082C02A9880E18EBD0DB407FEFDCFCEB5B5
S1130280CEBD8C2F8C70843011F082E074C00DB41C
S113029007FEFDCF8EB52A9A878B8081823068F461
S11302A02A9882E88EBD0DB407FEFDCF8EB588E096
S11302B08EBD0DB407FEFDCF2A9A2A9883E88EBD21
S11302C00DB407FEFDCF8EB582E08EBD0DB407FEE2
S11302D0FDCF2A9A8581811102C060E401C060E0EB
S11302E08F0180E0ADDFF801818F85B5868F15BC65
S11302F085B3876085BB82E0858B2FC02A9880E117
S11303008EBD0DB407FEFDCFCEB5CEBD8C2F8C7047
S1130310843009F0BACF0DB407FEFDCF8EB52A9A0A
S1130320808F9789928F158E93E0958B91E0978FAC
S11303309081968B807C933029F0943019F4803826
S113034019F415C0882399F0178E811102C082E038
S113035003C0803871F484E0868B8C2F8095881FCD
S11303608827881F880F880F06C084E004C080E0B7
S113037002C082E0858BCF911F910F9108951F9247
S11303800F920FB60F9211242F933F938F939F9345
S113039080910A0187FD1DC0815080930A018F3F1F
S11303A0C1F480910B0180FD26C081E09FEF909302
S11303B00A0191E0909300018C602A9892E89EBD16
S11303C00DB407FEFDCF9EB58EBD0DB407FEFDCF67
S11303D02A9A209110013091110180911501211563
S11303E0310559F021503109309311012093100146
S11303F0232B39F002C082E0D9CF8E7F8093150180
S113040033C081608093150180910E0190910F019A
S11304109093110180931001809109018F3F19F08D
S11304208F5F8093090180911401882329F0815002
S1130430809314018823A9F08091130190911201F3
S1130440981791F0809312012A9896E89EBD0DB4F6
S113045007FEFDCF9EB58EBD0DB407FEFDCF2A9AD3
S113046003C010920101E8CF9F918F913F912F918A
S11304700F900FBE0F901F901895FC01108615BCAD
S113048016BC85B3876085BB85859685009749F53D
S11304902081243021F420912A01211102C02091CD
S11304A02B012430E0F0203418F4822F90E017C0A0
S11304B0322F307C303449F484E0289F9001112499
S11304C03327C901805C9F4F0AC0303841F42F7331
S11304D080E1289F90011124C901805C9E4F96877A
S11304E0858770E06F5F7F4F708B678784E08093B0
S11304F06E0082E084BD94E697BD98BD85BD0895E5
S11305001F93CF93DF93DC015596EC914E2F50E06F
S11305104C30510508F05EC0EC01FA01EC5CFF4F71
S113052058C62A9883E88EBD0DB407FEFDCF8EB55C
S113053082E08EBD0DB407FEFDCF2A9A84E08D8B38
S113054031C12A9880E18EBD0DB407FEFDCF1EB5E2
S11305501EBD812F8C70843011F082E026C1ED8D98
S1130560F0E00DB407FEFDCF9EB52A9AEC0FFD1FF7
S1130570948F8A8D89278A8F9D8D9F5F9D8F91117E
S11305800DC02A9883E88EBD0DB407FEFDCF8EB54D
S113059082E08EBD0DB407FEFDCF72C09F8997FD2A
S11305A011C02A9883E88EBD0DB407FEFDCF8EB529
S11305B082E08EBD0DB407FEFDCF2A9A85E08D8BB7
S11305C01D8EEEC0688D3CDE988D8913C6CF8F8D4D
S11305D0811102C083E0E9C08C8D8E831D8E6FC0B3
S11305E02A9880E18EBD0DB407FEFDCF1EB51EBD59
S11305F0812F8C70843009F0B0CF0DB407FEFDCF8D
S11306009EB52A9A9B8F8A8D89278A8F9D8D9F5F9D
S11306109D8F911137C02A9883E88EBD0DB407FED3
S1130620FDCF8EB582E08EBD0DB407FEFDCF2A9AB4
S113063086E0A2C02A9880E18EBD0DB407FEFDCFEE
S11306401EB51EBD812F8C70843009F086CF0DB489
S113065007FEFDCF9EB52A9A8A8D89278A8F9D8DA4
S11306609F5F9D8F91110EC02A9883E88EBD0DB4B3
S113067007FEFDCF8EB582E08EBD0DB407FEFDCF23
S11306802A9A8EC0688DDCDD988D891366CF8F8D94
S1130690882309F49FCF8F899B8D282F20762032C1
S11306A041F08C898D7F8C8B8C8D8E831D8E1A8E60
S11306B02DC08F718B879C878C898260F4CF1A8EB2
S11306C08F89682F6F7180769FDD2A9890E99EBD8F
S11306D00DB407FEFDCF1EB58EBD0DB407FEFDCFD4
S11306E02A9A9A8D89278A8F9D81911102C060E48C
S11306F001C060E0A5DD898F8D8D8F5F8D8F8111A5
S113070002C088E039C01D8E89E036C08D818823FF
S113071031F08D8DFE01E80FF11D918101C090E053
S11307202A9880E98EBD0DB407FEFDCF1EB59EBD8F
S11307300DB407FEFDCF2A9A8A8D89278A8F9D8161
S1130740911102C060E401C060E07ADD898F8D8D73
S11307508F5F8D8F843021F58AE00EC0898D2A98B1
S113076090E99EBD0DB407FEFDCF1EB58EBD0DB440
S113077007FEFDCF2A9A8BE08D8B12C02A9883E85E
S11307808EBD0DB407FEFDCF1EB582E08EBD0DB447
S113079007FEFDCF2A9A81E08D8B60E0CE016DDEED
S11307A017FF02C080E001C084E0DF91CF911F9168
S11307B008951F93CF93DF93DC015596EC914E2F50
S11307C050E04C30510518F5EC01FA01E05CFF4FA4
S11307D000C58F8987FD10C02A9883E88EBD0DB4AB
S11307E007FEFDCF8EB582E08EBD0DB407FEFDCFB2
S11307F02A9A85E08D8BFEC0688D8A8D21DD988DC7
S1130800891711F082E0F9C08F8D8111ADC083E0AA
S1130810F4C02A9880E18EBD0DB407FEFDCF1EB54D
S11308201EBD812F8C70843069F7ED8DF0E00DB41E
S113083007FEFDCF9EB52A9AEC0FFD1F948F8A8D7B
S113084089278A8F9D8D9F5F9D8F9F8997FD11C0FA
S11308502A9883E88EBD0DB407FEFDCF8EB582E0E5
S11308608EBD0DB407FEFDCF2A9A85E08D8B1D8EBB
S1130870BFC0688DE5DC988D8913C4CF8F8D882324
S113088031F28C8D8E831D8E6FC02A9880E18EBDCF
S11308900DB407FEFDCF1EB51EBD812F8C708430B4
S11308A009F0B0CF0DB407FEFDCF9EB52A9A9B8FF9
S11308B08A8D89278A8F9D8D9F5F9D8F911137C067
S11308C02A9883E88EBD0DB407FEFDCF8EB582E075
S11308D08EBD0DB407FEFDCF2A9A86E075C02A9816
S11308E080E18EBD0DB407FEFDCF1EB51EBD812F68
S11308F08C70843009F086CF0DB407FEFDCF9EB511
S11309002A9A8A8D89278A8F9D8D9F5F9D8F911149
S11309100EC02A9883E88EBD0DB407FEFDCF8EB5B8
S113092082E08EBD0DB407FEFDCF2A9A61C0688DAA
S113093087DC988D891366CF8F8D882309F467CF60
S11309408F899B8D282F2076203241F08C898D7FD2
S11309508C8B8C8D8E831D8E1A8E28C08F718B8705
S11309609C878C898260F4CF1A8E8F89682F6F716F
S113097080764ADC2A9890E99EBD0DB407FEFDCF2F
S11309801EB58EBD0DB407FEFDCF2A9A9A8D892718
S11309908A8F60E455DC898F8D8D8F5F8D8F8111F7
S11309A002C088E011C01D8E89E00EC0898D2A988E
S11309B090E99EBD0DB407FEFDCF1EB58EBD0DB4EE
S11309C007FEFDCF2A9A8BE08D8B12C02A9883E80C
S11309D08EBD0DB407FEFDCF1EB582E08EBD0DB4F5
S11309E007FEFDCF2A9A81E08D8B60E0CE0145DDC4
S11309F017FF02C080E001C084E0DF91CF911F9116
S1130A0008951F93CF93DF93DC015596EC914E2FFD
S1130A1050E04C30510518F5EC01FA01E45BFF4F4E
S1130A20D8C38F8987FD10C02A9883E88EBD0DB482
S1130A3007FEFDCF8EB582E08EBD0DB407FEFDCF5F
S1130A402A9A85E08D8B00C1688D8A8DF9DB988D9B
S1130A50891711F082E0FBC08F8D8111ADC083E056
S1130A60F6C02A9880E18EBD0DB407FEFDCF1EB5F9
S1130A701EBD812F8C70843069F7ED8DF0E00DB4CC
S1130A8007FEFDCF9EB52A9AEC0FFD1F948F8A8D29
S1130A9089278A8F9D8D9F5F9D8F9F8997FD11C0A8
S1130AA02A9883E88EBD0DB407FEFDCF8EB582E093
S1130AB08EBD0DB407FEFDCF2A9A85E08D8B1D8E69
S1130AC0C1C0688DBDDB988D8913C4CF8F8D8823F9
S1130AD031F28C8D8E831D8E6FC02A9880E18EBD7D
S1130AE00DB407FEFDCF1EB51EBD812F8C70843062
S1130AF009F0B0CF0DB407FEFDCF9EB52A9A9B8FA7
S1130B008A8D89278A8F9D8D9F5F9D8F911137C014
S1130B102A9883E88EBD0DB407FEFDCF8EB582E022
S1130B208EBD0DB407FEFDCF2A9A86E075C02A98C3
S1130B3080E18EBD0DB407FEFDCF1EB51EBD812F15
S1130B408C70843009F086CF0DB407FEFDCF9EB5BE
S1130B502A9A8A8D89278A8F9D8D9F5F9D8F9111F7
S1130B600EC02A9883E88EBD0DB407FEFDCF8EB566
S1130B7082E08EBD0DB407FEFDCF2A9A63C0688D56
S1130B805FDB988D891366CF8F8D882309F467CF37
S1130B908F899B8D282F2076203241F08C898D7F80
S1130BA08C8B8C8D8E831D8E1A8E28C08F718B87B3
S1130BB09C878C898260F4CF1A8E8F89682F6F711D
S1130BC0807622DB2A9890E99EBD0DB407FEFDCF06
S1130BD01EB58EBD0DB407FEFDCF2A9A9A8D8927C6
S1130BE08A8F60E42DDB898F8D8D8F5F8D8F8111CE
S1130BF002C088E011C01D8E89E00EC0898D2A983C
S1130C0090E99EBD0DB407FEFDCF1EB58EBD0DB49B
S1130C1007FEFDCF2A9A8BE08D8B14C02A9883E8B7
S1130C208EBD0DB407FEFDCF1EB582E08EBD0DB4A2
S1130C3007FEFDCF2A9A81E08D8B82E0888360E0F5
S1130C40CE011BDC17FF02C080E001C084E0DF910D
S1130C50CF911F910895FC012A9880E88EBD0DB4B0
S1130C6007FEFDCF8CE08EBD0DB407FEFDCF82E301
S1130C708EBD828580FD02C091E001C092E09C603F
S1130C800DB407FEFDCF9EBD0DB407FEFDCF1EBC07
S1130C900DB407FEFDCF83E08EBD0DB407FEFDCF7E
S1130CA01EBC82890DB407FEFDCF8EBD0DB407FEB8
S1130CB0FDCF2A9A108208951F920F920FB60F92B9
S1130CC011242F933F934F935F936F937F938F934D
S1130CD09F93AF93BF93EF93FF93309B79C0809121
S1130CE01601833020F481E091E0B5DA01C080E0A0
S1130CF090911601933088F080911701833031F080
S1130D00843041F481E091E0FBDB07C081E091E0B5
S1130D1050DD03C081E091E074DE833019F184304A
S1130D20C9F1823009F04AC02A9904C00DB407FE03
S1130D30FDCF2A9A2A9883E88EBD0DB407FEFDCF15
S1130D408EB592E09EBD0DB407FEFDCF2A9A81FFB9
S1130D5031C08091010181112DC06FE781E091E0E4
S1130D608CDB28C02A9883E88EBD0DB407FEFDCF26
S1130D708EB582E08EBD0DB407FEFDCF2A9A81E0C8
S1130D8080931601809101018330B8F082E0809352
S1130D90010113C02A9885E88EBD0DB407FEFDCF6E
S1130DA08EB580E88EBD0DB407FEFDCF2A9A81E092
S1130DB091E051DF81E0809316013BDA80911601C6
S1130DC08850833010F4309BFECF82E08BBB85CFFC
S1130DD0FF91EF91BF91AF919F918F917F916F910F
S1130DE05F914F913F912F910F900FBE0F901F90E5
S1130DF01895E1E0F1E010829FEF9087ABE0B1E05D
S1130E008C9181608C9316861586108A1786918B37
S1130E10128A138AA5E1B1E08C918C7F8B7F8C932D
S1130E209387158A168A168E08958EE48093B300EC
S1130E3082E08093B00087E08093B1002798089502
S1130E40FB018081813109F47AC09181823129F0DA
S1130E50803159F490933A0108C0913031F487E419
S1130E6080937C0087EC80937A002181E081EC30D0
S1130E7008F060C0E93050F080910101823009F03F
S1130E805EC0F0E0E75DFE4F20830895E13069F530
S1130E9080910101843021F480912A01811102C0E2
S1130EA080912B018430D0F0803410F490E018C08D
S1130EB0982F907C903441F434E0839FC001112436
S1130EC09927805C9F4F0CC0903841F48F7330E1B8
S1130ED0839FC0011124805C9E4F02C080E090E09B
S1130EE090930F0180930E01CCCFE130F8F42839B0
S1130EF0A1F028F42A35B1F0273931F008952939C1
S1130F0049F02A3919F0089582E001C083E0809302
S1130F10010108951092080103C081E08093080143
S1130F2084E0F5CF83E0809314010895E43009F45C
S1130F30A3CF089581EF8E0F813108F4A2CF0895D5
S1130F40B99B04C082E087BB81E0089580E00895E6
S1130F50CF93DF93EC01F4DF882361F188818F5F05
S1130F60888390E023E0959587952A95E1F7982F5B
S1130F709F7083FF02C0909597708091090185301E
S1130F8018F019829A8302C099831A821F9902C0A9
S1130F908FE08A83898120E1829FC001112490918E
S1130FA013019F70892B80931301807F9A81892B71
S1130FB08093130182E18093030184E3809304010D
S1130FC086E58093050180913B01813059F020F042
S1130FD0823021F588811CC083B18095881F8827C1
S1130FE0881F16C090917A0096FD1AC0209178004F
S1130FF030917900369527953695279520930201EF
S11310008093060180917A00806480937A0008C0FE
S11310108093020181E08093060102C010920601D0
S1131020DF91CF910895CF93DF93EC0161157105A2
S113103011F006DF27C080910101811123C093B113
S11310409095991F9927991F80910B0190FB80F926
S113105080930B01911102C091E001C092E08FEFE7
S113106080930A0181E0809300019C602A9882E8C1
S11310708EBD0DB407FEFDCF8EB59EBD0DB407FE2B
S1131080FDCF2A9ACE01DF91CF9162CFCF93DF9328
S1131090EC018CE58CBD81E08DBD85B1846285B9A0
S11310A02B9884B18C6284B9249840E250E060EBC0
S11310B071E089E291E093D018821D821F828091B1
S11310C0680082608093680080916C0081608093E6
S11310D06C00F2DD188615BC16BC85B3876085BB31
S11310E08D859E85009749F52881243021F420912F
S11310F02A01211102C020912B012430E0F0203478
S113110018F4822F90E017C0322F307C303449F429
S113111084E0289F900111243327C901805C9F4FEC
S11311200AC0303841F42F7380E1289F90011124C4
S1131130C901805C9E4F9E878D8781E090E0988BEB
S11311408F8784E080936E0082E084BD94E697BD2F
S113115098BD85BDDF91CF9108952FEF81EE94E086
S1131160215080409040E1F700C000008AB18063C4
S11311708AB95C985ADE81E091E088DF789483B77D
S1131180817F83BF83B7816083BF889583B78E7F58
S113119083BF8091150180FFF5CF8E7F8093150169
S11311A081FF06C08D7F809315016CE071E002C061
S11311B060E070E080916C008E7F80936C0089E425
S11311C091E031DF80916C00816080936C0074DD6C
S11311D0D9CFEE0FFF1F0590F491E02D0994FB0188
S11311E0DC0102C005900D9241505040D8F708959B
S10711F0F894FFCF9D
S9030000FC
