:10000000E8C0000002C1000000C10000FEC0000006
:1000100079C60000FAC00000F8C00000F6C0000079
:10002000F4C00000F2C00000F0C00000EEC000000C
:10003000ECC00000EAC00000E8C00000A2C100005F
:10004000E4C00000E2C00000E0C00000DEC000002C
:10005000DCC00000DAC00000D8C00000D6C000003C
:10006000D4C00000D2C00000E203EC02EC02930214
:10007000A302F80222036D0394039403BC03CC0390
:10008000160515041504F703170459048304CE0458
:10009000F004F004F00400054C06490549052B0561
:1000A0004B058D05B70502062406240624063406F2
:1000B0002D3C0C1D3F2E1E0F0F1E2E3F1D0C3C2DE8
:1000C000392818092B3A0A1B1B0A3A2B0918283918
:1000D000091828391B0A3A2B2B3A0A1B3928180908
:1000E0001D0C3C2D0F1E2E3F3F2E1E0F2D3C0C1DB8
:1000F0003524140527360617170636270514243528
:100100002130001133221203031222331100302157
:100110001100302103122233332212032130001147
:1001200005142435170636272736061735241405F7
:1001300000000000000000000000000000000000BF
:1001400000000000000000000000000000000000AF
:10015000000000000000000000000000000000009F
:10016000000000000000000000000000000000008F
:10017000000000000000000000000000000000007F
:10018000000000000000000000000000000000006F
:10019000000000000000000000000000000000005F
:1001A000000000000000000000000000000000004F
:1001B0000000140811488301A61234560000000004
:1001C000000000000000000000000000000000002F
:1001D0001F0711241FBECFEFD8E0DEBFCDBF21E047
:1001E000A0E0B1E001C01D92A035B207E1F710E038
:1001F000C9EED0E004C02197FE010E940609C83E66
:10020000D107C9F7C7D70C941509FACE803219F077
:10021000803431F00DC0E62FF0E0E45DFE4F06C003
:10022000673038F4E62FF0E0EC5DFE4F908101C0BE
:1002300090E0892F089585B5811103C08091220136
:1002400085BD0895607C862787FD8095E82FF0E0C6
:10025000E055FF4F8491862B08950F931F93CF9302
:10026000FC018589813039F008F481C0823009F4BD
:1002700047C083E082C02A9880E18EBD0DB407FE9E
:10028000FDCFCEB5CEBD8C2F8C70843011F082E0C6
:1002900074C00DB407FEFDCF8EB52A9A878B80817E
:1002A000823068F42A9882E88EBD0DB407FEFDCF37
:1002B0008EB588E08EBD0DB407FEFDCF2A9A2A9830
:1002C00083E88EBD0DB407FEFDCF8EB582E08EBDF6
:1002D0000DB407FEFDCF2A9A8281811102C060E42D
:1002E00001C060E08F0180E0ADDFF801818F85B54E
:1002F00081A315BC85B3876085BB82E0858B2FC049
:100300002A9880E18EBD0DB407FEFDCFCEB5CEBDDF
:100310008C2F8C70843009F0BACF0DB407FEFDCF5E
:100320008EB52A9A808F9789928F10A293E0958B31
:1003300091E092A39081968B807C933029F0943049
:1003400019F4803819F415C0882399F012A281118C
:1003500002C082E003C0803871F484E0868B8C2F69
:100360008095881F8827881F880F880F06C084E023
:1003700004C080E002C082E0858BCF911F910F9175
:1003800008951F920F920FB60F9211242F933F934F
:100390008F939F9380910A0187FD1DC081508093A8
:1003A0000A018F3FC1F480910B0180FD26C081E0DE
:1003B0009FEF90930A0191E0909300018C602A983E
:1003C00092E89EBD0DB407FEFDCF9EB58EBD0DB467
:1003D00007FEFDCF2A9A20911001309111018091E2
:1003E00015012115310559F02150310930931101C2
:1003F00020931001232B39F002C082E0D9CF8E7FE9
:100400008093150133C081608093150180910E01A6
:1004100090910F0190931101809310018091090137
:100420008F3F19F08F5F8093090180911401882319
:1004300029F08150809314018823A9F08091130141
:1004400090911201981791F0809312012A9896E8E2
:100450009EBD0DB407FEFDCF9EB58EBD0DB407FE4B
:10046000FDCF2A9A03C010920101E8CF9F918F918E
:100470003F912F910F900FBE0F901F901895FC0188
:10048000108615BC16BC85B3876085BB85859685AF
:10049000009749F52081243021F420912D0121116C
:1004A00002C020912E012430E0F0203418F4822F75
:1004B00090E017C0322F307C303449F484E0289F1C
:1004C000900111243327C901805C9F4F0AC0303846
:1004D00041F42F7380E1289F90011124C901805CB1
:1004E0009E4F9687858770E06F5F7F4F708B678721
:1004F00084E080936E0082E084BD94E697BD98BD51
:1005000085BD08951F93CF93DF93DC015596EC9141
:100510004E2F50E04C30510508F05EC0EC01FA015E
:10052000EC5CFF4F73C62A9883E88EBD0DB407FEBE
:10053000FDCF8EB582E08EBD0DB407FEFDCF2A9AA9
:1005400084E08D8B3DC12A9880E18EBD0DB407FEFD
:10055000FDCF1EB51EBD812F8C70843011F082E05E
:1005600032C1E8A1F0E00DB407FEFDCF9EB52A9A96
:10057000EC0FFD1F948F8A8D89278A8F98A19F5F2A
:1005800098A3943068F42A9883E88EBD0DB407FED2
:10059000FDCF8EB582E08EBD0DB407FEFDCF78C0D5
:1005A0009F8997FD11C02A9883E88EBD0DB407FE80
:1005B000FDCF8EB582E08EBD0DB407FEFDCF2A9A29
:1005C00085E08D8B18A2FAC0688D3CDE988D89136A
:1005D000C6CF8AA1811102C083E0F5C08C8D9D8DAC
:1005E000AE8DBF8D8B839C83AD83BE8318A275C0F7
:1005F0002A9880E18EBD0DB407FEFDCF1EB51EBD4D
:10060000812F8C70843009F0AACF0DB407FEFDCF86
:100610009EB52A9A9B8F8A8D89278A8F98A19F5F82
:1006200098A3911137C02A9883E88EBD0DB407FEB8
:10063000FDCF8EB582E08EBD0DB407FEFDCF2A9AA8
:1006400086E0A8C02A9880E18EBD0DB407FEFDCFDC
:100650001EB51EBD812F8C70843009F080CF0DB483
:1006600007FEFDCF9EB52A9A8A8D89278A8F98A189
:100670009F5F98A391110EC02A9883E88EBD0DB498
:1006800007FEFDCF8EB582E08EBD0DB407FEFDCF17
:100690002A9A94C0688DD6DD988D891360CF8AA17F
:1006A000882309F499CF8F899B8D282F20762032BB
:1006B00071F08C898D7F8C8B8C8D9D8DAE8DBF8DD7
:1006C0008B839C83AD83BE8318A21A8E2DC08F713D
:1006D0008B879C878C898260EECF1A8E8F89682FDA
:1006E0006F71807693DD2A9890E99EBD0DB407FE68
:1006F000FDCF1EB58EBD0DB407FEFDCF2A9A9A8D93
:1007000089278A8F9A81911102C060E401C060E05C
:1007100099DD898F88A18F5F88A3811102C088E04D
:1007200039C018A289E036C08A81882331F088A1B7
:10073000FE01E80FF11D918101C090E02A9880E947
:100740008EBD0DB407FEFDCF1EB59EBD0DB407FED8
:10075000FDCF2A9A8A8D89278A8F9A81911102C0AA
:1007600060E401C060E06EDD898F88A18F5F88A39F
:10077000813021F58AE00EC0898D2A9890E99EBDCE
:100780000DB407FEFDCF1EB58EBD0DB407FEFDCF27
:100790002A9A8BE08D8B12C02A9883E88EBD0DB407
:1007A00007FEFDCF1EB582E08EBD0DB407FEFDCF66
:1007B0002A9A81E08D8B60E0CE0161DE17FF02C0D6
:1007C00080E001C084E0DF91CF911F9108951F93D5
:1007D000CF93DF93DC015596EC914E2F50E04C30D7
:1007E000510518F5EC01FA01E05CFF4F0FC58F8948
:1007F00087FD10C02A9883E88EBD0DB407FEFDCF9B
:100800008EB582E08EBD0DB407FEFDCF2A9A85E03D
:100810008D8B0AC1688D8A8D15DD988D891711F031
:1008200082E005C18AA18111B9C083E000C12A9884
:1008300080E18EBD0DB407FEFDCF1EB51EBD812F1C
:100840008C70843069F7E8A1F0E00DB407FEFDCFAD
:100850009EB52A9AEC0FFD1F948F8A8D89278A8F67
:1008600098A19F5F98A39F8997FD11C02A9883E85C
:100870008EBD0DB407FEFDCF8EB582E08EBD0DB4EA
:1008800007FEFDCF2A9A85E08D8B18A2CBC0688D1C
:10089000D9DC988D8913C4CF8AA1882331F28C8D3D
:1008A0009D8DAE8DBF8D8B839C83AD83BE8318A23F
:1008B00075C02A9880E18EBD0DB407FEFDCF1EB530
:1008C0001EBD812F8C70843009F0AACF0DB407FEB5
:1008D000FDCF9EB52A9A9B8F8A8D89278A8F98A1F2
:1008E0009F5F98A3911137C02A9883E88EBD0DB4FD
:1008F00007FEFDCF8EB582E08EBD0DB407FEFDCFA5
:100900002A9A86E07BC02A9880E18EBD0DB407FE4E
:10091000FDCF1EB51EBD812F8C70843009F080CFB5
:100920000DB407FEFDCF9EB52A9A8A8D89278A8F3E
:1009300098A19F5F98A391110EC02A9883E88EBD5D
:100940000DB407FEFDCF8EB582E08EBD0DB407FE5F
:10095000FDCF2A9A67C0688D75DC988D891360CFAA
:100960008AA1882309F461CF8F899B8D282F207657
:10097000203271F08C898D7F8C8B8C8D9D8DAE8D0E
:10098000BF8D8B839C83AD83BE8318A21A8E28C033
:100990008F718B879C878C898260EECF1A8E8F89AE
:1009A000682F6F71807632DC2A9890E99EBD0DB475
:1009B00007FEFDCF1EB58EBD0DB407FEFDCF2A9AF2
:1009C0009A8D89278A8F60E43DDC898F88A18F5FAB
:1009D00088A3811102C088E011C018A289E00EC06E
:1009E000898D2A9890E99EBD0DB407FEFDCF1EB5F6
:1009F0008EBD0DB407FEFDCF2A9A8BE08D8B12C001
:100A00002A9883E88EBD0DB407FEFDCF1EB582E0A7
:100A10008EBD0DB407FEFDCF2A9A81E08D8B60E07C
:100A2000CE012DDD17FF02C080E001C084E0DF9120
:100A3000CF911F9108951F93CF93DF93DC015596BB
:100A4000EC914E2F50E04C30510518F5EC01FA01B5
:100A5000E45BFF4FDBC38F8987FD10C02A9883E8D2
:100A60008EBD0DB407FEFDCF8EB582E08EBD0DB4F8
:100A700007FEFDCF2A9A85E08D8B0CC1688D8A8D8B
:100A8000E1DB988D891711F082E007C18AA18111FD
:100A9000B9C083E002C12A9880E18EBD0DB407FE83
:100AA000FDCF1EB51EBD812F8C70843069F7E8A183
:100AB000F0E00DB407FEFDCF9EB52A9AEC0FFD1FA6
:100AC000948F8A8D89278A8F98A19F5F98A39F8989
:100AD00097FD11C02A9883E88EBD0DB407FEFDCFA7
:100AE0008EB582E08EBD0DB407FEFDCF2A9A85E05B
:100AF0008D8B18A2CDC0688DA5DB988D8913C4CFCE
:100B00008AA1882331F28C8D9D8DAE8DBF8D8B8314
:100B10009C83AD83BE8318A275C02A9880E18EBDE8
:100B20000DB407FEFDCF1EB51EBD812F8C70843025
:100B300009F0AACF0DB407FEFDCF9EB52A9A9B8F70
:100B40008A8D89278A8F98A19F5F98A3911137C0BA
:100B50002A9883E88EBD0DB407FEFDCF8EB582E0E6
:100B60008EBD0DB407FEFDCF2A9A86E07BC02A9881
:100B700080E18EBD0DB407FEFDCF1EB51EBD812FD9
:100B80008C70843009F080CF0DB407FEFDCF9EB588
:100B90002A9A8A8D89278A8F98A19F5F98A391119D
:100BA0000EC02A9883E88EBD0DB407FEFDCF8EB52A
:100BB00082E08EBD0DB407FEFDCF2A9A69C0688D14
:100BC00041DB988D891360CF8AA1882309F461CF16
:100BD0008F899B8D282F2076203271F08C898D7F14
:100BE0008C8B8C8D9D8DAE8DBF8D8B839C83AD83C7
:100BF000BE8318A21A8E28C08F718B879C878C8920
:100C00008260EECF1A8E8F89682F6F718076FEDA40
:100C10002A9890E99EBD0DB407FEFDCF1EB58EBD8E
:100C20000DB407FEFDCF2A9A9A8D89278A8F60E43A
:100C300009DB898F88A18F5F88A3811102C088E0BA
:100C400011C018A289E00EC0898D2A9890E99EBD36
:100C50000DB407FEFDCF1EB58EBD0DB407FEFDCF52
:100C60002A9A8BE08D8B14C02A9883E88EBD0DB430
:100C700007FEFDCF1EB582E08EBD0DB407FEFDCF91
:100C80002A9A81E08D8B82E0888360E0CE01F7DBD9
:100C900017FF02C080E001C084E0DF91CF911F9177
:100CA0000895FC012A9880E88EBD0DB407FEFDCFA3
:100CB00088E18EBD0DB407FEFDCF82E38EBD828537
:100CC00080FD02C091E001C092E09C600DB407FE7F
:100CD000FDCF9EBD0DB407FEFDCF1EBC0DB407FEBB
:100CE000FDCF83E08EBD0DB407FEFDCF1EBC828913
:100CF0000DB407FEFDCF8EBD0DB407FEFDCF2A9AC1
:100D0000108208951F920F920FB60F9211242F9305
:100D10003F934F935F936F937F938F939F93AF9383
:100D2000BF93EF93FF93309B79C08091160183307E
:100D300020F481E091E091DA01C080E09091160109
:100D4000933088F080911701833031F0843041F482
:100D500081E091E0D7DB07C081E091E038DD03C09E
:100D600081E091E068DE833019F18430C9F182308E
:100D700009F04AC02A9904C00DB407FEFDCF2A9A93
:100D80002A9883E88EBD0DB407FEFDCF8EB592E0A4
:100D90009EBD0DB407FEFDCF2A9A81FF31C0809120
:100DA000010181112DC06FE781E091E068DB28C06F
:100DB0002A9883E88EBD0DB407FEFDCF8EB582E084
:100DC0008EBD0DB407FEFDCF2A9A81E080931601F7
:100DD000809101018330B8F082E08093010113C05B
:100DE0002A9885E88EBD0DB407FEFDCF8EB580E84C
:100DF0008EBD0DB407FEFDCF2A9A81E091E051DF50
:100E000081E08093160117DA8091160188508330B3
:100E100010F4309BFECF82E08BBB85CFFF91EF912A
:100E2000BF91AF919F918F917F916F915F914F9102
:100E30003F912F910F900FBE0F901F901895E1E0FA
:100E4000F1E010829FEF9087ABE0B1E08C91816080
:100E50008C9316861586108A1786918B128A138AB0
:100E6000A5E1B1E08C918C7F8B7F8C939387158A61
:100E7000168A11A208958EE48093B30082E08093D5
:100E8000B00087E08093B10027980895FB0180812E
:100E9000813109F47AC09181823129F0803159F48D
:100EA00090933D0108C0913031F487E480937C0039
:100EB00087EC80937A002181E081EC3008F060C0FB
:100EC000E93050F080910101823009F05EC0F0E01D
:100ED000E45DFE4F20830895E13069F580910101C2
:100EE000843021F480912D01811102C080912E0166
:100EF0008430D0F0803410F490E018C0982F907CAB
:100F0000903441F434E0839FC00111249927805C20
:100F10009F4F0CC0903841F48F7330E1839FC00124
:100F20001124805C9E4F02C080E090E090930F01FE
:100F300080930E01CCCFE130F8F42839A1F028F4E9
:100F40002A35B1F0273931F00895293949F02A3985
:100F500019F0089582E001C083E0809301010895B3
:100F60001092080103C081E08093080184E0F5CF6E
:100F700083E0809314010895E43009F4A3CF089529
:100F800081EF8E0F813108F4A2CF0895B99B04C080
:100F900082E087BB81E0089580E00895CF93DF93DE
:100FA000EC01F4DF882361F188818F5F888390E012
:100FB00023E0959587952A95E1F7982F9F7083FFF9
:100FC00002C09095977080910901853018F01982C0
:100FD0009A8302C099831A821F9902C08FE08A8384
:100FE000898120E1829FC0011124909113019F709B
:100FF000892B80931301807F9A81892B8093130121
:1010000080913E01813059F020F0823021F58881B5
:101010001CC083B18095881F8827881F16C09091B7
:101020007A0096FD1AC020917800309179003695AB
:10103000279536952795209302018093030180918F
:101040007A00806480937A0008C08093020181E076
:101050008093030102C010920301DF91CF910895A4
:10106000CF93DF93EC016115710511F00FDF27C0FD
:1010700080910101811123C093B19095991F992707
:10108000991F80910B0190FB80F980930B019111C6
:1010900002C091E001C092E08FEF80930A0181E0ED
:1010A000809300019C602A9882E88EBD0DB407FEF3
:1010B000FDCF8EB59EBD0DB407FEFDCF2A9ACE01A1
:1010C000DF91CF916BCFCF93DF93EC018CE58CBD9B
:1010D00081E08DBD85B1846285B92B9884B18C6225
:1010E00084B9249840E250E060EB71E08CE291E03A
:1010F00093D018821A821F82809168008260809348
:10110000680080916C00816080936C00FBDD188624
:1011100015BC16BC85B3876085BB8D859E85009701
:1011200049F52881243021F420912D01211102C09C
:1011300020912E012430E0F0203418F4822F90E02A
:1011400017C0322F307C303449F484E0289F90015E
:1011500011243327C901805C9F4F0AC0303841F405
:101160002F7380E1289F90011124C901805C9E4F5C
:101170009E878D8781E090E0988B8F8784E08093B5
:101180006E0082E084BD94E697BD98BD85BDDF9179
:10119000CF9108952FEF81EE94E021508040904050
:1011A000E1F700C000008AB180638AB95C9863DE11
:1011B00081E091E088DF789483B7817F83BF83B734
:1011C000816083BF889583B78E7F83BF809115012F
:1011D00080FFF5CF8E7F8093150181FF06C08D7F44
:1011E000809315016CE071E002C060E070E08091D6
:1011F0006C008E7F80936C008CE491E031DF8091F5
:101200006C00816080936C007DDDD9CFEE0FFF1FF5
:101210000590F491E02D0994FB01DC0102C00590DA
:0E1220000D9241505040D8F70895F894FFCF3A
:00000001FF
