:1000000044C000005CC000005AC0000058C000009E
:10001000DBC2000054C0000052C0000050C000000D
:100020004EC000004CC000004AC0000048C00000A4
:1000300046C0000044C0000042C0000056C000009E
:100040003EC000003CC000003AC0000038C00000C4
:1000500036C0000034C0000032C0000030C00000D4
:100060002EC000002CC0000000001E001148080136
:10007000A61234560000000000000000000000003E
:1000800000000000000000007D0311241FBECFEF20
:10009000D8E0DEBFCDBF21E0A0E0B1E001C01D92FD
:1000A000AF33B207E1F710E0C5E4D0E003C0219719
:1000B000FE0107D5C434D107D1F7C7D411C5A0CFED
:1000C000803219F0803431F00DC0E62FF0E0E55EAB
:1000D000FE4F06C0673038F4E62FF0E0ED5EFE4FCD
:1000E000908101C090E0892F08951F920F920FB662
:1000F0000F9211242F933F938F939F938091070129
:1001000087FD1DC08150809307018F3FC1F480910E
:10011000080180FD26C081E09FEF9093070191E0E8
:100120009093000184602A9892E89EBD0DB407FE6A
:10013000FDCF9EB58EBD0DB407FEFDCF2A9A20914E
:100140000D0130910E01809112012115310559F0F8
:100150002150310930930E0120930D01232B39F0EA
:1001600002C082E0D9CF8E7F8093120133C08160BC
:100170008093120180910B0190910C0190930E01DC
:1001800080930D01809106018F3F19F08F5F80935E
:10019000060180911101882329F08150809311017B
:1001A0008823A9F08091100190910F01981791F088
:1001B00080930F012A9896E89EBD0DB407FEFDCFEF
:1001C0009EB58EBD0DB407FEFDCF2A9A03C01092D6
:1001D0000101E8CF9F918F913F912F910F900FBE1A
:1001E0000F901F9018952A9904C00DB407FEFDCFFB
:1001F0002A9A0895FC012A9880E88EBD0DB407FE66
:10020000FDCF8CE08EBD0DB407FEFDCF82E28EBD2A
:10021000878180FD02C091E001C092E094600DB43E
:1002200007FEFDCF9EBD0DB407FEFDCF1EBC0DB475
:1002300007FEFDCF83E08EBD0DB407FEFDCF1EBCD3
:1002400087850DB407FEFDCF8EBD0DB407FEFDCF33
:100250002A9A10820895FC01158215BC16BC85B33C
:10026000876085BB82859385009749F5208124307E
:1002700021F420911C01211102C020911D01243084
:10028000E0F0203418F4822F90E017C0322F307C39
:10029000303449F484E0289F900111243327C901A8
:1002A000805C9F4F0AC0303841F42F7380E1289F53
:1002B00090011124C901805C9E4F9387828770E072
:1002C0006F5F7F4F7587648784E080936E0082E064
:1002D00084BD94E697BD98BD85BD0895CF93DF9307
:1002E000EC01962F862F80766F7197FD49C00DB473
:1002F00007FEFDCF9EB59EBD907C903811F083E047
:100300007FC00DB407FEFDCF9EB59EBD9B830DB48F
:1003100007FEFDCF2EB52A9A2A9890E99EBD9989AD
:10032000803251F468872987892F8260898B8A817E
:10033000882329F0898103C0892F8D7FF7CF0DB4E1
:1003400007FEFDCF8EBD8A81811102C080E401C00D
:1003500080E00DB407FEFDCF8EBD0DB407FEFDCFCE
:100360002A9A2A9883E88EBD0DB407FEFDCF8EB57C
:1003700089E08EBD0DB407FEFDCF2A9A67E03DC02F
:100380000DB407FEFDCF9EB59EBD907C903809F060
:10039000B6CF0DB407FEFDCF9EB52A9A9B832A984F
:1003A00090E99EBD8DDE0DB407FEFDCF8EBD8A8126
:1003B000882311F0898101C080E00DB407FEFDCFD4
:1003C0008EBD8A81811102C080E401C080E00DB43D
:1003D00007FEFDCF8EBD0DB407FEFDCF2A9A2A98E9
:1003E00083E88EBD0DB407FEFDCF8EB58DE08EBDCA
:1003F0000DB407FEFDCF2A9A6AE0CE012CDF80E023
:10040000DF91CF910895CF93DF93EC01962F862F44
:1004100080766F7197FD32C00DB407FEFDCF9EB59B
:100420009EBD907C11F083E052C00DB407FEFDCF5D
:100430002EB52A9A2A9890E99EBD9989803221F496
:1004400068872987926001C09D7F998B0DB407FE54
:10045000FDCF80E48EBD0DB407FEFDCF2A9A2A9809
:1004600083E88EBD0DB407FEFDCF8EB585E08EBD51
:100470000DB407FEFDCF2A9A63E026C00DB407FE37
:10048000FDCF9EB52A9A907C71F62A9890E99EBD80
:1004900017DE0DB407FEFDCF8EBD0DB407FEFDCFF8
:1004A00080E48EBD0DB407FEFDCF2A9A2A9883E81A
:1004B0008EBD0DB407FEFDCF8EB589E08EBD0DB4A7
:1004C00007FEFDCF2A9A67E0CE01C5DE80E0DF910E
:1004D000CF910895CF93DF93EC01962F862F8076EE
:1004E0006F7197FD34C00DB407FEFDCF9EB59EBD64
:1004F000907C11F083E065C00DB407FEFDCF2EB5F2
:100500002A9A2A9890E99EBD9989803229F46887B1
:100510002987892F826002C0892F8D7F898B0DB436
:1005200007FEFDCF80E48EBD0DB407FEFDCF2A9AF5
:100530002A9883E88EBD0DB407FEFDCF8EB585E009
:100540008EBD0DB407FEFDCF2A9A63E026C00DB420
:1005500007FEFDCF9EB52A9A907C61F62A9890E915
:100560009EBDAEDD0DB407FEFDCF8EBD0DB407FE02
:10057000FDCF80E48EBD0DB407FEFDCF2A9A2A98E8
:1005800083E88EBD0DB407FEFDCF8EB589E08EBD2C
:100590000DB407FEFDCF2A9A67E0CE015CDE8881AC
:1005A000823071F082E088832A9882E88EBD0DB493
:1005B00007FEFDCF8EB51EBC0DB407FEFDCF2A9AF7
:1005C00080E0DF91CF9108951F920F920FB60F92A6
:1005D00011242F933F934F935F936F937F938F9348
:1005E0009F93AF93BF93EF93FF93309B75C02A986F
:1005F00080E18EBD0DB407FEFDCF8EB58EBD87FFA9
:100600004AC082FF25C083FD25C00DB407FEFDCF83
:100610006EB56EBD80910101833031F0843041F4BC
:1006200081E091E05BDE07C081E091E0ECDE03C099
:1006300081E091E04FDF823069F020F4813009F0F1
:1006400048C006C08330A9F0843009F042C023C0FE
:10065000CADD3FC0C8DD2A9883E88EBD0DB407FE11
:10066000FDCF8EB582E08EBD0DB407FEFDCF2A9A78
:1006700030C0B9DD2A9883E88EBD0DB407FEFDCFEA
:100680008EB582E08EBD0DB407FEFDCF2A9A82E0C2
:10069000809301011EC0A7DD2A9883E88EBD0DB4AA
:1006A00007FEFDCF8EB582E08EBD0DB407FEFDCFF7
:1006B0002A9A2A9885E88EBD0DB407FEFDCF8EB527
:1006C00080E88EBD0DB407FEFDCF2A9A81E091E04F
:1006D00091DD82E08BBB89CFFF91EF91BF91AF910C
:1006E0009F918F917F916F915F914F913F912F914A
:1006F0000F900FBE0F901F901895E1E0F1E010826F
:100700009FEF9583A8E0B1E08C9181608C93138674
:1007100012861586148696871786108AA2E1B1E0A4
:100720008C918C7F8B7F8C93908708958EE480933F
:10073000B30082E08093B00087E08093B1002798F7
:100740000895FB018081813109F47AC09181823161
:1007500029F0803159F490932C0108C0913031F484
:1007600087E480937C0087EC80937A002181E0818C
:10077000EC3008F060C0E93050F080910101823027
:1007800009F05EC0F0E0E55EFE4F20830895E130A1
:1007900069F580910101843021F480911C0181115F
:1007A00002C080911D018430D0F0803410F490E0BC
:1007B00018C0982F907C903441F434E0839FC0019E
:1007C00011249927805C9F4F0CC0903841F48F739F
:1007D00030E1839FC0011124805C9E4F02C080E005
:1007E00090E090930C0180930B01CCCFE130F8F4B2
:1007F0002839A1F028F42A35B1F0273931F00895CD
:10080000293949F02A3919F0089582E001C083E0BE
:100810008093010108951092050103C081E0809347
:10082000050184E0F5CF83E0809311010895E43061
:1008300009F4A3CF089581EF8E0F813108F4A2CF80
:100840000895B99B04C082E087BB81E0089580E0F1
:100850000895CF93DF93EC01F4DF882361F1888161
:100860008F5F888390E023E0959587952A95E1F73F
:10087000982F9F7083FF02C090959770809106011A
:10088000853018F019829A8302C099831A821F99C1
:1008900002C08FE08A83898120E1829FC0011124F8
:1008A000909110019F70892B80931001807F9A8115
:1008B000892B8093100180912D01813059F020F017
:1008C000823021F588811CC083B18095881F8827DC
:1008D000881F16C090917A0096FD1AC0209178006A
:1008E000309179003695279536952795209302010A
:1008F0008093030180917A00806480937A0008C01D
:100900008093020181E08093030102C010920301F1
:10091000DF91CF910895CF93DF93EC0161157105BD
:1009200011F00FDF27C080910101811123C093B125
:100930009095991F9927991F8091080190FB80F944
:1009400080930801911102C091E001C092E08FEF05
:100950008093070181E08093000194602A9882E8E7
:100960008EBD0DB407FEFDCF8EB59EBD0DB407FE46
:10097000FDCF2A9ACE01DF91CF916BCFCF93DF933A
:10098000EC018CE58CBD81E08DBD85B1846285B9BB
:100990002B9884B18C6284B9249840E250E068E6D8
:1009A00070E08BE191E093D018821A821C828091D2
:1009B000680082608093680080916C008160809301
:1009C0006C0002DE1D8215BC16BC85B3876085BB3A
:1009D0008A859B85009749F52881243021F4209150
:1009E0001C01211102C020911D012430E0F02034AF
:1009F00018F4822F90E017C0322F307C303449F445
:100A000084E0289F900111243327C901805C9F4F07
:100A10000AC0303841F42F7380E1289F90011124DF
:100A2000C901805C9E4F9B878A8781E090E09D870B
:100A30008C8784E080936E0082E084BD94E697BD4D
:100A400098BD85BDDF91CF9108952FEF81EE94E0A1
:100A5000215080409040E1F700C000008AB18063DF
:100A60008AB95C9863DE81E091E088DF789483B78F
:100A7000817F83BF83B7816083BF889583B78E7F73
:100A800083BF8091120180FFF5CF8E7F809312018A
:100A900081FF06C08D7F8093120169E071E002C082
:100AA00060E070E080916C008E7F80936C008BE33F
:100AB00091E031DF80916C00816080936C0084DD77
:100AC000D9CFEE0FFF1F0590F491E02D0994FB01A3
:100AD000DC0102C005900D9241505040D8F70895B6
:040AE000F894FFCFB8
:00000001FF
