:10000000E8C0000003C1000001C10000FFC0000003
:1000100056C60000FBC00000F9C00000F7C0000099
:10002000F5C00000F3C00000F1C00000EFC0000008
:10003000EDC00000EBC00000E9C00000A3C100005B
:10004000E5C00000E3C00000E1C00000DFC0000028
:10005000DDC00000DBC00000D9C00000D7C0000038
:10006000D5C00000D3C00000D703ED02ED0294021A
:10007000A402F3021D03620389038903B103C103D0
:10008000FF040A040A04EC030C0448047204B704D5
:10009000D904D904D904E904290632053205140526
:1000A000340570059A05DF050106010601061106F3
:1000B0002D3C0C1D3F2E1E0F0F1E2E3F1D0C3C2DE8
:1000C000392818092B3A0A1B1B0A3A2B0918283918
:1000D000091828391B0A3A2B2B3A0A1B3928180908
:1000E0001D0C3C2D0F1E2E3F3F2E1E0F2D3C0C1DB8
:1000F0003524140527360617170636270514243528
:100100002130001133221203031222331100302157
:100110001100302103122233332212032130001147
:1001200005142435170636272736061735241405F7
:1001300000000000000000000000000000000000BF
:1001400000000000000000000000000000000000AF
:10015000000000000000000000000000000000009F
:10016000000000000000000000000000000000008F
:10017000000000000000000000000000000000007F
:10018000000000000000000000000000000000006F
:10019000000000000000000000000000000000005F
:1001A000000000000000000000000000000000004F
:1001B0000000140011480801A61234560000000087
:1001C000000000000000000000000000000000002F
:1001D000FC0611241FBECFEFD8E0DEBFCDBF21E06B
:1001E000A0E0B1E001C01D92A035B207E1F710E038
:1001F000C9EED0E004C02197FE010E942F0AC83E3C
:10020000D107C9F70E9498090C943E0AF9CE8032B2
:1002100019F0803431F00DC0E62FF0E0EA5DFE4FBA
:1002200006C0673038F4E62FF0E0E25EFE4F9081C2
:1002300001C090E0892F089585B5811103C0809198
:100240001C0185BD0895607C862787FD8095E82F79
:10025000F0E0E055FF4F8491862B08950F931F9394
:10026000CF93FC018289813039F008F481C082305B
:1002700009F447C083E082C02A9880E18EBD0DB4A6
:1002800007FEFDCFCEB5CEBD8C2F8C70843011F023
:1002900082E074C00DB407FEFDCF8EB52A9A848B20
:1002A0008081823068F42A9882E88EBD0DB407FE02
:1002B000FDCF8EB588E08EBD0DB407FEFDCF2A9A26
:1002C0002A9883E88EBD0DB407FEFDCF8EB582E07F
:1002D0008EBD0DB407FEFDCF2A9A8281811102C026
:1002E00060E401C060E08F0180E0ADDFF801868B43
:1002F00085B5838F15BC85B3876085BB82E0828B13
:100300002FC02A9880E18EBD0DB407FEFDCFCEB57B
:10031000CEBD8C2F8C70843009F0BACF0DB407FE9F
:10032000FDCF8EB52A9A858B9489978B128E93E098
:10033000928B91E0948F9081938B807C933029F005
:10034000943019F4803819F415C0882399F0148E6C
:10035000811102C082E003C0803871F484E0838B95
:100360008C2F8095881F8827881F880F880F06C0CC
:1003700084E004C080E002C082E0828BCF911F91B4
:100380000F9108951F920F920FB60F9211242F9381
:100390003F938F939F938091070187FD1DC08150EC
:1003A000809307018F3FC1F48091080180FD26C032
:1003B00081E09FEF9093070191E0909300018C60A2
:1003C0002A9892E89EBD0DB407FEFDCF9EB58EBD66
:1003D0000DB407FEFDCF2A9A20910D0130910E0138
:1003E000809112012115310559F0215031093093C6
:1003F0000E0120930D01232B39F002C082E0D9CFEA
:100400008E7F8093120133C08160809312018091AE
:100410000B0190910C0190930E0180930D0180913E
:1004200006018F3F19F08F5F8093060180911101C3
:10043000882329F08150809311018823A9F08091AD
:10044000100190910F01981791F080930F012A9855
:1004500096E89EBD0DB407FEFDCF9EB58EBD0DB4D2
:1004600007FEFDCF2A9A03C010920101E8CF9F91A9
:100470008F913F912F910F900FBE0F901F90189565
:10048000FC01158215BC16BC85B3876085BB8285CF
:100490009385009749F52081243021F4209127018C
:1004A000211102C0209128012430E0F0203418F4FA
:1004B000822F90E017C0322F307C303449F484E032
:1004C000289F900111243327C901805C9F4F0AC0E7
:1004D000303841F42F7380E1289F90011124C90125
:1004E000805C9E4F9387828770E06F5F7F4F758738
:1004F000648784E080936E0082E084BD94E697BDBB
:1005000098BD85BD08951F93CF93DF93DC0152966C
:10051000EC914E2F50E04C30510508F05EC0EC01DC
:10052000FA01EC5CFF4F9BC72A9883E88EBD0DB49F
:1005300007FEFDCF8EB582E08EBD0DB407FEFDCF68
:100540002A9A84E08A8B31C12A9880E18EBD0DB44D
:1005500007FEFDCF1EB51EBD812F8C70843011F0BB
:1005600082E026C1EA8DF0E00DB407FEFDCF9EB516
:100570002A9AEC0FFD1F918F8F8989278F8B9A8D77
:100580009F5F9A8F91110DC02A9883E88EBD0DB49C
:1005900007FEFDCF8EB582E08EBD0DB407FEFDCF08
:1005A00072C09C8997FD11C02A9883E88EBD0DB456
:1005B00007FEFDCF8EB582E08EBD0DB407FEFDCFE8
:1005C0002A9A85E08A8B1A8EEEC06D893CDE9D8961
:1005D0008913C6CF8C8D811102C083E0E9C0898D5B
:1005E0008B831A8E6FC02A9880E18EBD0DB407FEF2
:1005F000FDCF1EB51EBD812F8C70843009F0B0CFA9
:100600000DB407FEFDCF9EB52A9A988F8F89892752
:100610008F8B9A8D9F5F9A8F911137C02A9883E8AC
:100620008EBD0DB407FEFDCF8EB582E08EBD0DB43C
:1006300007FEFDCF2A9A86E0A2C02A9880E18EBDEF
:100640000DB407FEFDCF1EB51EBD812F8C7084300A
:1006500009F086CF0DB407FEFDCF9EB52A9A8F898B
:1006600089278F8B9A8D9F5F9A8F91110EC02A9840
:1006700083E88EBD0DB407FEFDCF8EB582E08EBD42
:100680000DB407FEFDCF2A9A8EC06D89DCDD9D89F1
:10069000891366CF8C8D882309F49FCF8C89988D20
:1006A000282F2076203241F089898D7F898B898D92
:1006B0008B831A8E1F8A2DC08F71888799878989AD
:1006C0008260F4CF1F8A8C89682F6F7180769FDDDE
:1006D0002A9890E99EBD0DB407FEFDCF1EB58EBDD4
:1006E0000DB407FEFDCF2A9A9F8989278F8B9A81A7
:1006F000911102C060E401C060E0A5DD8E8B8A8D9F
:100700008F5F8A8F811102C088E039C01A8E89E01C
:1007100036C08A81882331F08A8DFE01E80FF11DF1
:10072000918101C090E02A9880E98EBD0DB407FE4A
:10073000FDCF1EB59EBD0DB407FEFDCF2A9A8F8951
:1007400089278F8B9A81911102C060E401C060E01B
:100750007ADD8E8B8A8D8F5F8A8F813021F58AE0DA
:100760000EC08E892A9890E99EBD0DB407FEFDCF7C
:100770001EB58EBD0DB407FEFDCF2A9A8BE08A8B85
:1007800012C02A9883E88EBD0DB407FEFDCF1EB5BA
:1007900082E08EBD0DB407FEFDCF2A9A81E08A8BE0
:1007A00060E0CE016DDE17FF02C080E001C084E092
:1007B000DF91CF911F9108951F93CF93DF93DC01B9
:1007C0005296EC914E2F50E04C30510518F5EC014B
:1007D000FA01E05CFF4F43C68C8987FD10C02A9860
:1007E00083E88EBD0DB407FEFDCF8EB582E08EBDD1
:1007F0000DB407FEFDCF2A9A85E08A8BFEC06D8975
:100800008F8921DD9D89891711F082E0F9C08C8DD7
:100810008111ADC083E0F4C02A9880E18EBD0DB493
:1008200007FEFDCF1EB51EBD812F8C70843069F789
:10083000EA8DF0E00DB407FEFDCF9EB52A9AEC0FCD
:10084000FD1F918F8F8989278F8B9A8D9F5F9A8F3C
:100850009C8997FD11C02A9883E88EBD0DB407FED0
:10086000FDCF8EB582E08EBD0DB407FEFDCF2A9A76
:1008700085E08A8B1A8EBFC06D89E5DC9D8989135E
:10088000C4CF8C8D882331F2898D8B831A8E6FC0F3
:100890002A9880E18EBD0DB407FEFDCF1EB51EBDAA
:1008A000812F8C70843009F0B0CF0DB407FEFDCFDE
:1008B0009EB52A9A988F8F8989278F8B9A8D9F5FF3
:1008C0009A8F911137C02A9883E88EBD0DB407FE28
:1008D000FDCF8EB582E08EBD0DB407FEFDCF2A9A06
:1008E00086E075C02A9880E18EBD0DB407FEFDCF6D
:1008F0001EB51EBD812F8C70843009F086CF0DB4DB
:1009000007FEFDCF9EB52A9A8F8989278F8B9A8DF6
:100910009F5F9A8F91110EC02A9883E88EBD0DB407
:1009200007FEFDCF8EB582E08EBD0DB407FEFDCF74
:100930002A9A61C06D8987DC9D89891366CF8C8D69
:10094000882309F467CF8C89988D282F2076203250
:1009500041F089898D7F898B898D8B831A8E1F8ABF
:1009600028C08F718887998789898260F4CF1F8A10
:100970008C89682F6F7180764ADC2A9890E99EBD39
:100980000DB407FEFDCF1EB58EBD0DB407FEFDCF25
:100990002A9A9F8989278F8B60E455DC8E8B8A8DFC
:1009A0008F5F8A8F811102C088E011C01A8E89E0A2
:1009B0000EC08E892A9890E99EBD0DB407FEFDCF2A
:1009C0001EB58EBD0DB407FEFDCF2A9A8BE08A8B33
:1009D00012C02A9883E88EBD0DB407FEFDCF1EB568
:1009E00082E08EBD0DB407FEFDCF2A9A81E08A8B8E
:1009F00060E0CE0145DD17FF02C080E001C084E069
:100A0000DF91CF911F9108951F93CF93DF93DC0166
:100A10005296EC914E2F50E04C30510518F5EC01F8
:100A2000FA01E45BFF4F1BC58C8987FD10C02A9833
:100A300083E88EBD0DB407FEFDCF8EB582E08EBD7E
:100A40000DB407FEFDCF2A9A85E08A8B00C16D891F
:100A50008F89F9DB9D89891711F082E0FBC08C8DAD
:100A60008111ADC083E0F6C02A9880E18EBD0DB43F
:100A700007FEFDCF1EB51EBD812F8C70843069F737
:100A8000EA8DF0E00DB407FEFDCF9EB52A9AEC0F7B
:100A9000FD1F918F8F8989278F8B9A8D9F5F9A8FEA
:100AA0009C8997FD11C02A9883E88EBD0DB407FE7E
:100AB000FDCF8EB582E08EBD0DB407FEFDCF2A9A24
:100AC00085E08A8B1A8EC1C06D89BDDB9D89891333
:100AD000C4CF8C8D882331F2898D8B831A8E6FC0A1
:100AE0002A9880E18EBD0DB407FEFDCF1EB51EBD58
:100AF000812F8C70843009F0B0CF0DB407FEFDCF8C
:100B00009EB52A9A988F8F8989278F8B9A8D9F5FA0
:100B10009A8F911137C02A9883E88EBD0DB407FED5
:100B2000FDCF8EB582E08EBD0DB407FEFDCF2A9AB3
:100B300086E075C02A9880E18EBD0DB407FEFDCF1A
:100B40001EB51EBD812F8C70843009F086CF0DB488
:100B500007FEFDCF9EB52A9A8F8989278F8B9A8DA4
:100B60009F5F9A8F91110EC02A9883E88EBD0DB4B5
:100B700007FEFDCF8EB582E08EBD0DB407FEFDCF22
:100B80002A9A63C06D895FDB9D89891366CF8C8D3E
:100B9000882309F467CF8C89988D282F20762032FE
:100BA00041F089898D7F898B898D8B831A8E1F8A6D
:100BB00028C08F718887998789898260F4CF1F8ABE
:100BC0008C89682F6F71807622DB2A9890E99EBD10
:100BD0000DB407FEFDCF1EB58EBD0DB407FEFDCFD3
:100BE0002A9A9F8989278F8B60E42DDB8E8B8A8DD3
:100BF0008F5F8A8F811102C088E011C01A8E89E050
:100C00000EC08E892A9890E99EBD0DB407FEFDCFD7
:100C10001EB58EBD0DB407FEFDCF2A9A8BE08A8BE0
:100C200014C02A9883E88EBD0DB407FEFDCF1EB513
:100C300082E08EBD0DB407FEFDCF2A9A81E08A8B3B
:100C400082E0888360E0CE011BDC17FF02C080E0F9
:100C500001C084E0DF91CF911F910895FC012A9893
:100C600080E88EBD0DB407FEFDCF8CE08EBD0DB4C7
:100C700007FEFDCF82E38EBD878180FD02C091E03B
:100C800001C092E09C600DB407FEFDCF9EBD0DB487
:100C900007FEFDCF1EBC0DB407FEFDCF83E08EBD69
:100CA0000DB407FEFDCF1EBC87850DB407FEFDCF3A
:100CB0008EBD0DB407FEFDCF2A9A108208951F92B3
:100CC0000F920FB60F9211242F933F934F935F9380
:100CD0006F937F938F939F93AF93BF93EF93FF9304
:100CE000309B79C080911301833020F481E091E042
:100CF000B5DA01C080E090911301933088F08091C3
:100D00001401833031F0843041F481E091E0FBDB69
:100D100007C081E091E050DD03C081E091E074DE26
:100D2000833019F18430C9F1823009F04AC02A9920
:100D300004C00DB407FEFDCF2A9A2A9883E88EBD21
:100D40000DB407FEFDCF8EB592E09EBD0DB407FE3B
:100D5000FDCF2A9A81FF31C08091010181112DC000
:100D60006FE781E091E08CDB28C02A9883E88EBD94
:100D70000DB407FEFDCF8EB582E08EBD0DB407FE2B
:100D8000FDCF2A9A81E08093130180910101833085
:100D9000B8F082E08093010113C02A9885E88EBDE7
:100DA0000DB407FEFDCF8EB580E88EBD0DB407FEF5
:100DB000FDCF2A9A81E091E051DF81E08093130119
:100DC0003BDA809113018850833010F4309BFECFC2
:100DD00082E08BBB85CFFF91EF91BF91AF919F9147
:100DE0008F917F916F915F914F913F912F910F90D4
:100DF0000FBE0F901F901895E1E0F1E010829FEF79
:100E00009583A8E0B1E08C9181608C931386128663
:100E10001586148696871786108AA2E1B1E08C9118
:100E20008C7F8B7F8C939087128A138A138E089500
:100E30008EE48093B30082E08093B00087E08093DB
:100E4000B10027980895FB018081813109F47AC0AF
:100E50009181823129F0803159F49093370108C093
:100E6000913031F487E480937C0087EC80937A00A2
:100E70002181E081EC3008F060C0E93050F08091D1
:100E80000101823009F05EC0F0E0EA5DFE4F208390
:100E90000895E13069F580910101843021F4809159
:100EA0002701811102C0809128018430D0F0803464
:100EB00010F490E018C0982F907C903441F434E006
:100EC000839FC00111249927805C9F4F0CC09038EC
:100ED00041F48F7330E1839FC0011124805C9E4FE9
:100EE00002C080E090E090930C0180930B01CCCF86
:100EF000E130F8F42839A1F028F42A35B1F0273987
:100F000031F00895293949F02A3919F0089582E01D
:100F100001C083E08093010108951092050103C090
:100F200081E08093050184E0F5CF83E08093110197
:100F30000895E43009F4A3CF089581EF8E0F813135
:100F400008F4A2CF0895B99B04C082E087BB81E07A
:100F5000089580E00895CF93DF93EC01F4DF8823B8
:100F600061F188818F5F888390E023E09595879574
:100F70002A95E1F7982F9F7083FF02C09095977094
:100F800080910601853018F019829A8302C09983F6
:100F90001A821F9902C08FE08A83898120E1829F93
:100FA000C0011124909110019F70892B8093100132
:100FB000807F9A81892B8093100180913801813044
:100FC00071F038F0823009F1833031F580914E01B3
:100FD0001DC083B18095881F8827881F17C09091F6
:100FE0007A0096FD1BC020917800309179003695EB
:100FF00027953695279520930201809303018091D0
:101000007A00806480937A0009C08881809302010D
:1010100081E08093030102C010920301DF91CF9120
:101020000895CF93DF93EC016115710511F00BDF8B
:1010300027C080910101811123C093B19095991F20
:101040009927991F8091080190FB80F980930801EE
:10105000911102C091E001C092E08FEF80930701EF
:1010600081E0809300019C602A9882E88EBD0DB4D7
:1010700007FEFDCF8EB59EBD0DB407FEFDCF2A9AAB
:10108000CE01DF91CF9167CFCF93DF93CDB7DEB79E
:1010900088EB90E029EFFC01208386E690E02FEFBB
:1010A000FC01208381E690E020E8FC01208381E6BA
:1010B00090E020E8FC01208388EB90E02CE0FC012C
:1010C0002083DF91CF910895CF93DF9300D0CDB7E8
:1010D000DEB78A838CEB90E0FC0110828CEB90E011
:1010E00024EAFC01208300008CEB90E0FC0180816D
:1010F0008823D4F789EB90E0FC018081882F90E071
:10110000887F9927089711F081E020C08BEB90E051
:101110002A81FC0120838CEB90E024E8FC012083F1
:1011200000008CEB90E0FC0180818823D4F789EBF0
:1011300090E0FC018081887F89838981883129F052
:101140008981803411F081E001C080E00F900F9020
:10115000DF91CF910895CF93DF93CDB7DEB78CEBBE
:1011600090E024ECFC01208300008CEB90E0FC017B
:1011700080818823D4F78BEB90E0FC018081DF91A4
:10118000CF910895CF93DF93CDB7DEB78CEB90E08E
:1011900024E8FC01208300008CEB90E0FC018081BE
:1011A0008823D4F78BEB90E0FC018081DF91CF9115
:1011B00008950F931F93CF93DF93CDB7DEB7279793
:1011C0000FB6F894DEBF0FBECDBF8B837D836C83DB
:1011D0005F834E838B81816077DF882311F081E00C
:1011E00029C01A8219820FC02C813D8189819A8180
:1011F0008901080F191FAFDFF801808389819A8167
:1012000001969A8389838E819F819C0121503109A7
:1012100089819A818217930738F38E819F81019784
:101220002C813D818901080F191FACDFF8018083F3
:101230000CD080E027960FB6F894DEBF0FBECDBF6E
:10124000DF91CF911F910F910895CF93DF93CDB789
:10125000DEB78CEB90E024E9FC012083DF91CF9195
:101260000895CF93DF93EC018CE58CBD81E08DBDBB
:1012700085B1846285B92B9884B18C6284B9249835
:1012800040E250E060EB71E086E291E0EED018823F
:101290001A821C828091680082608093680080912D
:1012A0006C00816080936C000ADD1D8215BC16BC49
:1012B00085B3876085BB8A859B85009749F5288122
:1012C000243021F420912701211102C0209128010E
:1012D0002430E0F0203418F4822F90E017C0322F31
:1012E000307C303449F484E0289F90011124332766
:1012F000C901805C9F4F0AC0303841F42F7380E1F0
:10130000289F90011124C901805C9E4F9B878A878A
:1013100081E090E09D878C8784E080936E0082E07E
:1013200084BD94E697BD98BD85BDDF91CF910895AA
:101330002FEF81EE94E0215080409040E1F700C013
:1013400000008AB180638AB95C9872DD81E091E027
:1013500088DF9ADE50D010924E013A9A789483B783
:10136000817F83BF83B7816083BF889583B78E7F7A
:1013700083BF8091120180FFF5CF8E7F8093120191
:1013800081FF06C08D7F80931201C9E0D1E002C0C9
:10139000C0E0D0E042E050E06EE471E08AE909DFAD
:1013A00090914E01292F2295220F220F207C8091AF
:1013B0004F0186958695822B80934E019695969542
:1013C00090934F0181E380934A0110924B0198B1B1
:1013D00084E0892788B980916C008E7F80936C00AF
:1013E000BE0186E491E01DDE80916C0081608093F7
:1013F0006C0065DCB7CFCF93DF93CDB7DEB78AE261
:1014000090E02AE230E0F90120812360FC01208392
:1014100084E290E024E230E0F90120812064FC01C4
:1014200020838AE290E02AE230E0F9012081277FE0
:10143000FC0120838BE290E02BE230E0F901208177
:101440002C7FFC01208384E290E024E230E0F9016B
:1014500020812064FC012083DF91CF910895EE0F5D
:10146000FF1F0590F491E02D0994FB01DC0102C0FF
:1014700005900D9241505040D8F70895F894FFCF51
:00000001FF
